:100000000C9464000C948C000C948C000C948C0068
:100010000C948C000C948C000C948C000C94FC05BB
:100020000C948C000C948C000C948C000C948C0020
:100030000C948C000C948C000C948C000C948C0010
:100040000C94B2050C948C000C947E060C9458060B
:100050000C948C000C948C000C948C000C948C00F0
:100060000C948C000C948C000200000000240027EB
:10007000002A0000000000250028002B00000000DE
:1000800000230026002900040404040404040402DC
:100090000202020202030303030303010204081025
:1000A00020408001020408102001020408102000F2
:1000B0000000080002010000030407000000000027
:1000C00000000000B0068C0B11241FBECFEFD8E05B
:1000D000DEBFCDBF22E0A0E6B1E001C01D92A43595
:1000E000B207E1F711E0A0E0B1E0E8E6F6E202C015
:1000F00005900D92A036B107D9F710E0C3E6D0E025
:1001000004C02197FE010E94630EC236D107C9F7D1
:100110000E94EE060C9427130C940000CF92DF92FD
:10012000EF92FF9292EF980F8E3008F0892F877030
:10013000482F40642FE030E060E070E0CB01409356
:100140007C0050917A00506450937A0050917A006C
:1001500056FDFCCFC0907800D09079000D2C000C9B
:10016000EE08FF086C0D7D1D8E1D9F1D215031096D
:1001700031F72FE030E040E050E00E94440EDA0119
:10018000C90157FF07C088279927DC01821B930B01
:10019000A40BB50B0997A105B1051CF420E030E0D4
:1001A000A901C901FF90EF90DF90CF9008958330AF
:1001B00081F028F4813099F08230A9F008958730D9
:1001C000A9F08830C9F08430B1F4809180008F7D2F
:1001D00003C0809180008F7780938000089584B55C
:1001E0008F7784BD089584B58F7DFBCF8091B0005B
:1001F0008F778093B00008958091B0008F7DF9CF04
:10020000CF93DF93282F30E0F901E155FF4F849120
:10021000F901E556FF4FD491F901E957FF4FC49119
:10022000CC23A1F081110E94D700EC2FF0E0EE0F5B
:10023000FF1FE358FF4FA591B491EC91ED2381E0AE
:1002400090E009F480E0DF91CF91089580E090E0A4
:10025000FACF1F93CF93DF93282F30E0F901E155B8
:10026000FF4F8491F901E556FF4FD491F901E95709
:10027000FF4FC491CC23A9F0162F81110E94D70003
:10028000EC2FF0E0EE0FFF1FED58FF4FA591B4915A
:100290008FB7F894EC91111108C0D095DE23DC9350
:1002A0008FBFDF91CF911F910895DE2BF8CFCF93B1
:1002B000DF9390E0FC01E556FF4F249189579F4F53
:1002C000FC0184918823D1F090E0880F991FFC01F4
:1002D000E759FF4FA591B491FC01ED58FF4FC5912F
:1002E000D49161110EC09FB7F8948C91E22FE095E4
:1002F0008E238C932881E223E8839FBFDF91CF91E7
:1003000008958FB7F894EC91E22BEC938FBFF6CF62
:100310003FB7F89480919D0190919E01A0919F011B
:10032000B091A00126B5A89B05C02F3F19F00196FA
:10033000A11DB11D3FBFBA2FA92F982F8827BC013F
:10034000CD01620F711D811D911D42E0660F771F67
:10035000881F991F4A95D1F708958F929F92AF9267
:10036000BF92CF92DF92EF92FF924B015C010E940D
:1003700088016B017C010E9488016C197D098E093E
:100380009F09683E734081059105A8F321E0821A18
:100390009108A108B10888EEC80E83E0D81EE11CC0
:1003A000F11C81149104A104B10429F7FF90EF908E
:1003B000DF90CF90BF90AF909F908F900895089559
:1003C0009091000189130BC0E8E6F0E0E4919FEF03
:1003D00090930001E13049F028F0E23061F060E0F4
:1003E0000C94290110926E00FACF90916F009D7FBE
:1003F00090936F00F4CF909170009D7F9093700068
:1004000091E09093B0009091B100987F94609093A8
:10041000B1001092B300E3CFAF92BF92CF92DF92C0
:10042000EF92FF920F931F93CF93DF936C017B01A9
:100430008B01040F151FEB015E01AE18BF08C0173A
:10044000D10759F06991D601ED91FC910190F081AD
:10045000E02DC6010995892B79F7C501DF91CF9170
:100460001F910F91FF90EF90DF90CF90BF90AF90D2
:100470000895FC01538D448D252F30E0842F90E0AA
:10048000821B930B541710F0CF960895019708958F
:10049000FC01918D828D981761F0A28DAE0FBF2F58
:1004A000B11D5D968C91928D9F5F9F73928F90E0AE
:1004B00008958FEF9FEF0895FC01918D828D98171D
:1004C00031F0828DE80FF11D858D90E008958FEF5A
:1004D0009FEF0895FC01918D228D892F90E0805C23
:1004E0009F4F821B91098F739927089581EA91E0AC
:1004F0000E946A0221E0892B09F420E0822F0895EE
:10050000FC01A48DA80FB92FB11DA35ABF4F2C9188
:10051000848D90E001968F739927848FA689B7897F
:100520002C93A089B1898C91837080648C93938D76
:10053000848D981306C00288F389E02D80818F7D19
:1005400080830895EF92FF920F931F93CF93DF93D1
:10055000EC0181E0888F9B8D8C8D98131AC0E889FF
:10056000F989808185FF15C09FB7F894EE89FF89CE
:100570006083E889F98980818370806480839FBF6C
:1005800081E090E0DF91CF911F910F91FF90EF906C
:100590000895F62E0B8D10E00F5F1F4F0F7311277C
:1005A000E02E8C8D8E110CC00FB607FCFACFE889B7
:1005B000F989808185FFF5CFCE010E948002F1CFBD
:1005C000EB8DEC0FFD2FF11DE35AFF4FF0829FB72B
:1005D000F8940B8FEA89FB8980818062CFCFCF931B
:1005E000DF93EC01888D8823B9F0AA89BB89E8895B
:1005F000F9898C9185FD03C0808186FD0DC00FB601
:1006000007FCF7CF8C9185FFF2CF808185FFEDCF7E
:10061000CE010E948002E9CFDF91CF910895FC01C5
:1006200001900020E9F73197AF01481B590BBC013D
:1006300081EA91E00C940C02FC0180819181009789
:1006400011F00C94980B60E070E0CB010895FC0170
:1006500024813581232B39F421E0FB01808188231B
:1006600049F020E007C0808191810E94761021E04E
:10067000892BB9F7822F08950F931F93CF93DF93A0
:100680008C01EB01FC01808191810097E1F0688190
:10069000798161157105A9F0428153812C813D81D9
:1006A0004217530770F00E947F108C819D81F801E2
:1006B000958384831D821C82DF91CF911F910F91BE
:1006C00008950E94270F88819981F8019183808382
:1006D0008A819B81938382838C819D81958384838E
:1006E000198218821B821A82E5CFCF93DF93EC0127
:1006F00088819981009711F00E94270F1982188232
:100700001D821C821B821A82DF91CF910895FC0109
:1007100080819181009711F00C94270F08950F9319
:100720001F93CF93DF93EC0188819981009759F053
:100730002A813B812617370730F081E0DF91CF9186
:100740001F910F9108958B016F5F7F4F0E94B00F33
:10075000009759F0998388831B830A832C813D81FC
:10076000232B59F7FC011082E8CF80E0E7CFEF920E
:10077000FF920F931F93CF93DF93EC017B011982BC
:1007800018821B821A821D821C82FB0101900020AC
:10079000E9F731978F01061B170BB8010E948F03F1
:1007A000811109C0CE01DF91CF911F910F91FF9070
:1007B000EF900C9475031D830C83B7018881998198
:1007C000DF91CF911F910F91FF90EF900C947F10CC
:1007D000EF92FF920F931F93CF93DF938C017B01D6
:1007E000EB0109900020E9F72197C61BD70BBE014A
:1007F0000E948F03811109C0C801DF91CF911F9121
:100800000F91FF90EF900C947503F801D583C4838A
:10081000B70180819181DF91CF911F910F91FF905E
:10082000EF900C947F10CF92DF92EF92FF920F9394
:100830001F93CF93DF936C017B018A014617570703
:1008400020F48F2D7A01062F182F6AE471E0C6017B
:100850000E94B703C0914802D0914902EC16FD06F0
:10086000F8F40C171D0708F4E801E0914402F09138
:100870004502EC0FFD1F10811082609144027091BF
:1008800045026E0D7F1DC6016115710599F00E942C
:10089000E8038091440290914502C80FD91F188344
:1008A000C601DF91CF911F910F91FF90EF90DF90E4
:1008B000CF9008950E947503ECCFCF93DF9300D0C3
:1008C000CDB7DEB7FC01118210821382128215822D
:1008D000148269831A82BE016F5F7F4F0E94E80312
:1008E0000F900F90DF91CF910895EF92FF920F93A9
:1008F0001F93CF93DF936115710541F480E0DF9181
:10090000CF911F910F91FF90EF90089541155105E0
:10091000B1F07B01EC010C811D81040F151FB801A2
:100920000E948F03882351F3288139818C819D8116
:10093000B701820F931F0E947F101D830C8381E0FB
:10094000DECFEF92FF920F931F93CF93DF9300D0F0
:1009500000D000D0CDB7DEB7EE24E394F12C01E057
:1009600081EA91E00E946A02892B09F449C081EA78
:1009700091E00E944802182F833231F0809160018B
:1009800090916101019761F7F0926101E09260013D
:1009900019831A8241E050E0BE016F5F7F4F84E40B
:1009A00092E00E9475041E32D9F6109261011092F5
:1009B000600180914802909149020797A9F043E0B5
:1009C00050E070E060E0CE0101960E94130469E1FE
:1009D00071E0CE0101960E942703182FCE010196E7
:1009E0000E948703112319F000939701B9CF109249
:1009F00097016AE471E084E492E00E94E803B0CFDA
:100A000026960FB6F894DEBF0FBECDBFDF91CF9113
:100A10001F910F91FF90EF9008950E94760281112F
:100A20000C94A1040895CF93DF93CDB7DEB72C9734
:100A30000FB6F894DEBF0FBECDBF60E273E080E07A
:100A400090E00E94AD016DE171E0CE0101960E943F
:100A5000B70340914E0250914F0260914A0270914B
:100A60004B02CE0101960E947504811104C0CE0193
:100A700001960E94750342E050E060E271E0CE0111
:100A800001960E947504811104C0CE0101960E9456
:100A900075034D815E8169817A8181EA91E00E94CE
:100AA0000C02CE0101960E948703809163011F9280
:100AB0008F931F9281E08F9383E291E09F938F93B6
:100AC00087E891E09F938F930E94861060E273E025
:100AD00080E090E00E94AD0167E871E0CE010796EA
:100AE0000E94B70368E271E0CE0101960E94B7034D
:100AF0004B855C856F817885CE0101960E947504D7
:100B00000FB6F894DEBF0FBECDBF811104C0CE0179
:100B100001960E94750341E050E069E471E0CE0166
:100B200001960E947504811104C0CE0101960E94B5
:100B300075034D815E8169817A8181EA91E00E942D
:100B40000C02CE0101960E948703CE0107960E94F7
:100B500087032C960FB6F894DEBF0FBECDBFDF9192
:100B6000CF9108951F920F920FB60F9211242F93D9
:100B70003F938F939F93AF93BF93809199019091EF
:100B80009A01A0919B01B0919C013091980123E0C2
:100B9000230F2D3758F50196A11DB11D2093980103
:100BA0008093990190939A01A0939B01B0939C012B
:100BB00080919D0190919E01A0919F01B091A00113
:100BC0000196A11DB11D80939D0190939E01A0935C
:100BD0009F01B093A001BF91AF919F918F913F91E1
:100BE0002F910F900FBE0F901F90189526E8230F9E
:100BF0000296A11DB11DD2CF1F920F920FB60F9278
:100C000011242F933F934F935F936F937F938F9311
:100C10009F93AF93BF93EF93FF9380917301909154
:100C20007401A0917501B0917601892B8A2B8B2BD1
:100C3000D1F190916E01E0916F01F091700180818E
:100C4000892780838091730190917401A09175012F
:100C5000B0917601181619061A061B069CF48091AD
:100C6000730190917401A0917501B0917601019783
:100C7000A109B1098093730190937401A093750148
:100C8000B0937601FF91EF91BF91AF919F918F91BA
:100C90007F916F915F914F913F912F910F900FBE78
:100CA0000F901F901895809100010E94E001EACFFB
:100CB0001F920F920FB60F9211242F933F934F93D1
:100CC0005F936F937F938F939F93AF93BF93EF93B4
:100CD000FF9381EA91E00E948002FF91EF91BF9122
:100CE000AF919F918F917F916F915F914F913F91C4
:100CF0002F910F900FBE0F901F9018951F920F927B
:100D00000FB60F9211242F938F939F93EF93FF931E
:100D1000E091B101F091B2018081E091B701F091D1
:100D2000B80182FD1BC090818091BA018F5F8F73E3
:100D30002091BB01821741F0E091BA01F0E0EF553C
:100D4000FE4F958F8093BA01FF91EF919F918F9104
:100D50002F910F900FBE0F901F9018958081F4CFA8
:100D6000E1EAF1E01382128288EE93E0A0E0B0E0C5
:100D700084839583A683B7838BE091E091838083FE
:100D800085EC90E09587848784EC90E09787868750
:100D900080EC90E0918B808B81EC90E0938B828B48
:100DA00082EC90E0958B848B86EC90E0978B868B21
:100DB000118E128E138E148E6DE271E08AE492E031
:100DC0000E94B7036AE471E084E492E00E94B703F2
:100DD0006AE471E08EE392E00C94B703CF93DF9363
:100DE000CDB7DEB766970FB6F894DEBF0FBECDBFA6
:100DF000789484B5826084BD84B5816084BD85B5F6
:100E0000826085BD85B5816085BD80916E00816001
:100E100080936E00109281008091810082608093A7
:100E200081008091810081608093810080918000A9
:100E30008160809380008091B10084608093B100D4
:100E40008091B00081608093B00080917A008460CE
:100E500080937A0080917A00826080937A008091FA
:100E60007A00816080937A0080917A008068809314
:100E70007A001092C10061E085E00E94570161E0B4
:100E800086E00E94570161E087E00E94570161E01F
:100E900088E00E94570161E089E00E94570160E00C
:100EA00085E00E94290160E086E00E94290160E05F
:100EB00087E00E94290160E088E00E94290160E04B
:100EC00089E00E942901E091B101F091B20182E034
:100ED0008083E091AD01F091AE011082E091AF010D
:100EE000F091B0018FEC80831092B901E091B501CF
:100EF000F091B60186E08083E091B301F091B401F6
:100F0000808180618083E091B301F091B4018081A0
:100F100088608083E091B301F091B40180818068A2
:100F20008083E091B301F091B40180818F7D808353
:100F300060E085E00E94290160E086E00E942901CE
:100F400060E971E080E090E00E94AD015E0123E184
:100F5000A20EB11C78E5272E71E0372E44244A9466
:100F6000542C32016FE0862E67E2962E8091970115
:100F7000882309F4BCC063E371E084E492E00E943A
:100F8000270381110E9413056BE371E084E492E072
:100F90000E942703882329F010926301F0E0E0E02B
:100FA000099563E471E084E492E00E9427038111D3
:100FB000109296016BE471E084E492E00E942703B2
:100FC000882319F0F1E0F093960143E050E070E0DF
:100FD00060E0CE0101960E94130469E171E0CE0148
:100FE00001960E942703F82ECE0101960E948703E6
:100FF000FF2009F474C06AE471E0CE010D960E94EE
:10100000B7036AE471E0CE0107960E94B703E0904F
:101010004802F090490224E0E216F10438F0E09131
:101020004402F0914502309709F041C010926201EC
:10103000E2E6F1E06081CE0101960E945D04BE010E
:101040006F5F7F4FCE010D960E943C03CE0101964B
:101050000E948703A7014150510964E070E0CE016E
:1010600001960E941304BE016F5F7F4FCE01079669
:101070000E943C03CE0101960E948703CE010D968B
:101080000E941C036B01CE0107960E941C03F6010F
:101090003197E730F105D8F4E05BF74F0C94630E1D
:1010A0005908C008E708EC08F108F6081D0933964E
:1010B000C1CF709386016093850164EF71E080E099
:1010C00090E00E94AD0183E591E00E940F03CE0104
:1010D00007960E948703CE010D960E9487036AE45B
:1010E00071E084E492E00E94E803109297018091FD
:1010F0009601882309F409C22FB7F89480919901C9
:1011000090919A01A0919B01B0919C012FBF809377
:10111000920190939301A0939401B0939501409113
:101120008E0150918F016091900170919101841B0B
:10113000950BA60BB70B843F9140A105B10508F4B0
:10114000E4C11B8A1C8A1D8A1E8AE0918501F091E8
:101150008601EF30F10508F0BDC0EF54F74F0C9455
:10116000630E3109500950099909D109E409050AAA
:10117000160A160A160A160A160A160A160A160A6F
:101180008B859C85029720F0EF81F8853097E9F4F4
:1011900010926201E2E6F1E06081CE0101960E94C8
:1011A0005D04BE016F5F7F4FCE0107960E943C0336
:1011B000CE0101960E948703CE0107960E941C0370
:1011C000709384016093830178CF3196E5CF70935B
:1011D0006D0160936C0171CF70936B0160936A0134
:1011E0006CCF709382016093810167CF8B859C8562
:1011F000029720F0EF81F8853097E9F410926201B0
:10120000E2E6F1E06081CE0101960E945D04BE013C
:101210006F5F7F4FCE0107960E943C03CE0101967F
:101220000E948703CE0107960E941C0370938001E1
:1012300060937F0142CF3196E5CF7093690160934F
:10124000680164EF71E080E090E00E94AD0183E509
:1012500091E00E940F0341E0409363010E94130557
:1012600036CF80918301909184010E948E00BC0151
:10127000990F880B990B0E94D60B26E637EF44E2B4
:101280005EE30E94350C22E03BEA42E052E40E9419
:101290002A0D20E030E048EC52E40E94350CACC04E
:1012A00080918301909184010E948E006C01990FBE
:1012B000EE08FF08C701B6010E94D60B60936401D7
:1012C000709365018093660190936701CB8ADC8AF5
:1012D000ED8AFE8ACB88DC88ED88FE8880916C01DF
:1012E00090916D018130910509F4B9C0823091056A
:1012F00009F413C170E060E0892B09F0C2C060916D
:1013000068017091690180916A0190916B01092EC9
:10131000000CAA0BBB0BC816D906EA06FB060CF09C
:10132000B0C091E080E0672B09F090E0692F782F42
:10133000A8C080918301909184010E948E00BC011D
:10134000990F880B990B0E94D60B20E030E041EEFC
:1013500053E40E943F0E1816DCF480E090E0A8EC05
:10136000B2E48093640190936501A0936601B09309
:1013700067016091640170916501809166019091AF
:1013800067010E94090E6B8B7C8B8D8B9E8BA2CF8D
:10139000109264011092650110926601109267012B
:1013A000E8CF80918301909184010E948E00BC015E
:1013B000990F880B990B0E94D60B2DE930E846E275
:1013C0005EE30E94350C65CF80918301909184018A
:1013D0000E948E00BC01990F880B990B0E94D60BBE
:1013E00020E030E04AEF53E40E94350C20E030EC7E
:1013F0004FE754E40E94970D609364017093650178
:101400008093660190936701BCCF80918301909196
:1014100084010E948E00BC01990F880B990B0E94D9
:10142000D60B20E93EE34AEF5EE3CBCFF090830199
:1014300060E08F2D0E9457018F2D0E94000124E64D
:10144000FC012E9FC0012F9F900D1124092E000C2E
:10145000AA0BBB0B8B8B9C8BAD8BBE8B3BCF609158
:1014600068017091690180916A0190916B01092E68
:10147000000CAA0BBB0BC816D906EA06FB0609F43A
:1014800050CF809181019091820197FD07C08230F9
:1014900091050CF455C0029709F457C0B0928D0124
:1014A000A0928C018E898F938D898F938C898F93D5
:1014B0008B898F933F922F9247E851E05F934F9330
:1014C0000E948610E7E8F1E001900020E9F7AF0103
:1014D0004858514067E871E081EA91E00E940C02AF
:1014E0008091920190919301A0919401B091950106
:1014F00080938E0190938F01A0939001B0939101FE
:101500000FB6F894DEBF0FBECDBF0E9476028823CF
:1015100009F42CCD0E94A10425CD60916801709141
:10152000690180916A0190916B01092E000CAA0B50
:10153000BB0B8C159D05AE05BF050CF0A2CFF1CEFF
:1015400080917F010E942901A9CF80917F01909114
:1015500080016130710509F0DCC020910001821327
:1015600016C0E8E6F0E0149117FD98CF61E00E9404
:101570005701112309F488C0123009F099C08091F5
:10158000B100887F84608093B1008BE9B2C02F3FA7
:1015900009F084CF80930001E8E6F0E014911F3F4A
:1015A00009F47CCF113039F148F0123009F445C00C
:1015B00017FD74CF61E00E945701DECF14BC15BC4B
:1015C00024B5226024BD25B5216025BD9C013327AB
:1015D000F901E957FF4FE491F0E0EE0FFF1FED58DE
:1015E000FF4F45915491F901E556FF4FE491E09387
:1015F000720110E0BBCF1092800010928100209108
:101600008100286020938100209181002160209337
:1016100081009C013327F901E957FF4FE491F0E085
:10162000EE0FFF1FED58FF4F45915491F901E5561C
:10163000FF4FE491E093710199CF1092B0001092A6
:10164000B1002091B00022602093B0002091B10041
:1016500021602093B1009C013327F901E957FF4F26
:10166000E491F0E0EE0FFF1FED58FF4F45915491CC
:101670005093700140936F01F901E556FF4FE491DB
:10168000E0936E0112E072CF85B5887F836085BDDF
:101690008BE987BD40927B0150927C0160927D0175
:1016A00070927E0180916E00826080936E00F6CE13
:1016B0001130C1F480918100887F81608093810026
:1016C0009092890080928800409277015092780130
:1016D0006092790170927A0180916F0082608093AC
:1016E0006F00DCCE123021F01111D8CE8FE0D1CFB7
:1016F0008FE08093B3004092730150927401609226
:101700007501709276018091700082608093700004
:10171000C5CE0E94E001C2CE8EE392E00E94870314
:1017200084E492E00E9487038AE492E00C948703A9
:101730001F93FC0199278827BC01E894119110326E
:10174000E9F3193010F01E30C8F31B3251F01D328E
:1017500049F4689406C00E94BF0B610F711D811D82
:10176000911D119110531A30B0F33EF4909580956D
:10177000709561957F4F8F4F9F4F1F910895592FFF
:10178000482F372F262F660F771F881F991F660F48
:10179000771F881F991F620F731F841F951F660F85
:1017A000771F881F991F0895E89409C097FB3EF49E
:1017B00090958095709561957F4F8F4F9F4F99239E
:1017C000A9F0F92F96E9BB279395F695879577951C
:1017D0006795B795F111F8CFFAF4BB0F11F460FFDC
:1017E0001BC06F5F7F4F8F4F9F4F16C0882311F034
:1017F00096E911C0772321F09EE8872F762F05C048
:10180000662371F096E8862F70E060E02AF09A95E2
:10181000660F771F881FDAF7880F9695879597F9D7
:101820000895990F0008550FAA0BE0E8FEEF161671
:101830001706E807F907C0F012161306E407F507C4
:1018400098F0621B730B840B950B39F40A2661F038
:10185000232B242B252B21F408950A2609F4A140DB
:10186000A6958FEF811D811D08950E94480C0C9450
:10187000B90C0E94AB0C38F00E94B20C20F09523FA
:1018800011F00C94A20C0C94A80C11240C94ED0CE7
:101890000E94CA0C70F3959FC1F3950F50E0551F3D
:1018A000629FF001729FBB27F00DB11D639FAA27B5
:1018B000F00DB11DAA1F649F6627B00DA11D661F04
:1018C000829F2227B00DA11D621F739FB00DA11D25
:1018D000621F839FA00D611D221F749F3327A00DDF
:1018E000611D231F849F600D211D822F762F6A2F7B
:1018F00011249F5750409AF0F1F088234AF0EE0FE0
:10190000FF1FBB1F661F771F881F91505040A9F70C
:101910009E3F510580F00C94A20C0C94ED0C5F3F9F
:10192000E4F3983ED4F3869577956795B795F79548
:10193000E7959F5FC1F7FE2B880F911D96958795C0
:1019400097F9089597F99F6780E870E060E008953F
:101950009FEF80EC089500240A94161617061806C7
:101960000906089500240A941216130614060506A3
:101970000895092E0394000C11F4882352F0BB0F34
:1019800040F4BF2B11F460FF04C06F5F7F4F8F4F97
:101990009F4F089557FD9058440F551F59F05F3FD2
:1019A00071F04795880F97FB991F61F09F3F79F081
:1019B00087950895121613061406551FF2CF469503
:1019C000F1DF08C0161617061806991FF1CF869585
:1019D0007105610508940895E894BB276627772769
:1019E000CB0197F908952F923F924F925F926F9299
:1019F0007F928F929F92AF92BF92CF92DF92EF929F
:101A0000FF920F931F93CF93DF93CDB7DEB7CA1B1F
:101A1000DB0B0FB6F894DEBF0FBECDBF09942A884A
:101A2000398848885F846E847D848C849B84AA84F2
:101A3000B984C884DF80EE80FD800C811B81AA817F
:101A4000B981CE0FD11D0FB6F894DEBF0FBECDBF4A
:101A5000ED0108955058BB27AA270E94420D0C940F
:101A6000B90C0E94AB0C38F00E94B20C20F039F493
:101A70009F3F19F426F40C94A80C0EF4E095E7FBB4
:101A80000C94A20CE92F0E94CA0C58F3BA176207F3
:101A900073078407950720F079F4A6F50C94EC0CF5
:101AA0000EF4E0950B2EBA2FA02D0B01B901900179
:101AB0000C01CA01A0011124FF27591B99F0593FBD
:101AC00050F4503E68F11A16F040A22F232F342F05
:101AD0004427585FF3CF469537952795A795F04053
:101AE0005395C9F77EF41F16BA0B620B730B840B68
:101AF000BAF09150A1F0FF0FBB1F661F771F881F20
:101B0000C2F70EC0BA0F621F731F841F48F4879577
:101B100077956795B795F7959E3F08F0B0CF939569
:101B2000880F08F09927EE0F9795879508950E94E2
:101B3000AB0D0C94B90C0E94B20C58F00E94AB0C87
:101B400040F029F45F3F29F00C94A20C51110C9441
:101B5000ED0C0C94A80C0E94CA0C68F39923B1F305
:101B6000552391F3951B550BBB27AA2762177307C3
:101B7000840738F09F5F5F4F220F331F441FAA1F57
:101B8000A9F335D00E2E3AF0E0E832D09150504013
:101B9000E695001CCAF72BD0FE2F29D0660F771FC1
:101BA000881FBB1F261737074807AB07B0E809F0A7
:101BB000BB0B802DBF01FF2793585F4F3AF09E3F2C
:101BC000510578F00C94A20C0C94ED0C5F3FE4F3FB
:101BD000983ED4F3869577956795B795F7959F5F6F
:101BE000C9F7880F911D9695879597F90895E1E0BB
:101BF000660F771F881FBB1F621773078407BA071A
:101C000020F0621B730B840BBA0BEE1F88F7E09574
:101C100008950E94100E6894B1110C94ED0C089573
:101C20000E94D20C88F09F5798F0B92F9927B7518E
:101C3000B0F0E1F0660F771F881F991F1AF0BA9570
:101C4000C9F714C0B13091F00E94EC0CB1E00895D6
:101C50000C94EC0C672F782F8827B85F39F0B93FC8
:101C6000CCF3869577956795B395D9F73EF4909523
:101C70008095709561957F4F8F4F9F4F08950E947B
:101C8000110C08F48FEF0895052E97FB1EF40094B5
:101C90000E945B0E57FD07D00E94690E07FC03D01F
:101CA0004EF40C945B0E50954095309521953F4F26
:101CB0004F4F5F4F089590958095709561957F4F38
:101CC0008F4F9F4F0895EE0FFF1F0590F491E02D69
:101CD0000994A1E21A2EAA1BBB1BFD010DC0AA1F6D
:101CE000BB1FEE1FFF1FA217B307E407F50720F085
:101CF000A21BB30BE40BF50B661F771F881F991F00
:101D00001A9469F760957095809590959B01AC0148
:101D1000BD01CF0108950F931F93CF93DF938230BE
:101D2000910510F482E090E0E0915202F0915302AC
:101D300030E020E0B0E0A0E0309799F421153105C3
:101D400009F44AC0281B390B24303105D8F58A81A3
:101D50009B816115710589F1FB0193838283FE01EB
:101D600011C0408151810281138148175907E0F069
:101D70004817590799F4109761F012960C9312972F
:101D800013961C933296CF01DF91CF911F910F9143
:101D900008950093520210935302F4CF2115310598
:101DA00051F04217530738F0A901DB019A01BD0138
:101DB000DF01F801C1CFEF01F9CF90935302809377
:101DC0005202CDCFFE01E20FF31F81939193225077
:101DD000310939832883D7CF2091500230915102A5
:101DE000232B41F4209103013091040130935102DF
:101DF00020935002209101013091020121153105FB
:101E000041F42DB73EB74091050150910601241BC6
:101E1000350BE0915002F0915102E217F307A0F464
:101E20002E1B3F0B2817390778F0AC014E5F5F4F30
:101E30002417350748F04E0F5F1F5093510240930F
:101E40005002819391939FCFF0E0E0E09CCFCF933D
:101E5000DF930097E9F0FC01329713821282A09180
:101E60005202B0915302ED0130E020E01097A1F44E
:101E700020813181820F931F2091500230915102B5
:101E80002817390709F061C0F0935102E09350021E
:101E9000DF91CF910895EA01CE17DF07E8F54A8177
:101EA0005B819E0141155105B1F7E901FB83EA838E
:101EB00049915991C40FD51FEC17FD0761F480813A
:101EC00091810296840F951FE9019983888382810D
:101ED00093819B838A83F0E0E0E012968D919C9140
:101EE00013970097B9F52D913C911197CD0102966A
:101EF000820F931F20915002309151022817390709
:101F000039F6309751F51092530210925202B09365
:101F10005102A0935002BCCFD383C2834081518130
:101F2000840F951FC817D90761F44E5F5F4F8881F2
:101F30009981480F591F518340838A819B819383E4
:101F400082832115310509F0B0CFF0935302E0935D
:101F500052029ECFFD01DC01C0CF13821282D7CF87
:101F6000B0E0A0E0E6EBFFE00C94F50C8C010097EC
:101F700051F4CB010E948B0E8C01C801CDB7DEB7A6
:101F8000E0E10C94110DFC01E60FF71F9C012250BB
:101F90003109E217F30708F49DC0D901CD91DC9116
:101FA0001197C617D70798F0C530D10530F3CE0189
:101FB00004978617970708F3C61BD70B2297C19380
:101FC000D1936D937C93CF010E94270FD6CF5B01F5
:101FD000AC1ABD0A4C018C0E9D1EA0915202B0910C
:101FE0005302512C412CF12CE12C109731F58091AA
:101FF0005002909151028815990509F05CC046166F
:10200000570608F058C08091010190910201009795
:1020100041F48DB79EB74091050150910601841B94
:10202000950BE817F90708F055C0F0935102E093BB
:102030005002F90171836083A0CF8D919C9111971B
:1020400012966C90129713967C901397A815B90569
:1020500059F56C0142E0C40ED11CCA14DB0420F116
:10206000AC014A195B09DA011296159780F0628279
:10207000738251834083D9016D937C93E114F10401
:1020800071F0D7011396FC93EE93129776CF2296B8
:102090008C0F9D1FF90191838083F301EFCFF093A3
:1020A0005302E093520269CF4816590608F42C01F6
:1020B0007D01D3019ACFCB010E948B0E7C0100974A
:1020C00049F0AE01B8010E946D10C8010E94270FAF
:1020D000870153CF10E000E050CFFB01DC0102C0CC
:1020E00001900D9241505040D8F70895FB01DC015A
:1020F0008D91019080190110D9F3990B0895FB017E
:10210000DC0101900D920020E1F70895AEE0B0E00F
:10211000ECE8F0E10C94010D0D891E8986E08C83BA
:102120001A8309838FEF9FE79E838D83AE01475EFD
:102130005F4F6F89788DCE0101960E94A9102F8183
:102140003885020F131FF80110822E96E4E00C94DC
:102150001D0DABE0B0E0EFEAF0E10C94F30C7C0174
:102160003B018A01FC0117821682838181FFC8C16D
:10217000CE0101965C01F7019381F30193FD8591F6
:1021800093FF81913F01882309F453C1853239F4CB
:1021900093FD859193FF81913F01853229F4B70129
:1021A00090E00E949912E7CF912C212C312CFFE175
:1021B000F31538F08B3211F190F4803209F183324B
:1021C00029F137FC3CC020ED280F2A3050F536FEAF
:1021D00020C08AE0989E200D1124922E06C08D32D8
:1021E00091F0803371F7689430F8F30193FD859195
:1021F00093FF81913F018111DACF21C0689431F8BA
:10220000689432F8F2CF689433F8EFCF689434F8DA
:10221000ECCFEAE02E9E200D1124222E689435F892
:10222000E4CF8E3229F436FC04C1689436F8DDCF51
:102230008C3619F4689437F8D8CF8836B1F2982FD5
:102240009F7D95549330E0F08336A1F18337C1F13F
:10225000833509F063C02801F2E04F0E511CF801EC
:10226000C080D180692D70E036FC02C06FEF7FEF37
:10227000C6010E9483124C01689437F882010AC09B
:102280000C5F1F4FFFE3F98388248394912C650131
:10229000E89437F833FE2DC0522C8114910471F567
:1022A000552009F468CFB70180E290E00E949912AE
:1022B0005A94F6CFF801808189830E5F1F4FE4CFD7
:1022C0002801F2E04F0E511CF801C080D180692D29
:1022D00070E036FC02C06FEF7FEFC6010E948E12E5
:1022E0004C018201D5CFB70180E290E00E949912A3
:1022F0002A942814190409F0B0F7CECFF60137FC60
:10230000859137FE81916F01B70190E00E9499128B
:1023100051105A94F1E08F1A9108BFCF843619F00A
:10232000893609F077C0F80137FE6BC06081718192
:10233000828193810C5F1F4FF32DFF763F2E97FF15
:1023400009C090958095709561957F4F8F4F9F4FF5
:10235000689437F82AE030E0A5010E94C912C82E1F
:10236000CA188C2C432C36FE0CC0E89440F8C914D3
:1023700040F434FE05C032FC03C0F32DFE7E4F2E28
:10238000892C44FE95C0FE01EC0DF11D8081803347
:1023900009F087C0242D297E422E842D8870582E66
:1023A00043FC95C040FE8FC09C2C821418F42C0C6A
:1023B000922C981844FE91C0B70180E390E00E94EF
:1023C000991242FE09C088E790E041FE02C088E50C
:1023D00090E0B7010E949912C91408F48AC0CA9407
:1023E000D12C9FEFC91AD90ACA0CDB1CF6018291C5
:1023F0006F01B70190E00E949912AC14BD04B1F7CF
:102400004FCF60817181072E000C880B990B0E5FF6
:102410001F4F92CFD32CE894D4F82AE030E08537D0
:1024200039F1232D297FD22E8F3601F148F48835DA
:10243000A9F0F701868197812B96E2E10C940F0DAC
:10244000803749F08837A9F7D4FE02C06894D2F8E3
:1024500020E130E00DC06894D4F8F6CF34FE03C01C
:10246000822F8660D82E20E132E002C028E030E0E2
:10247000F801D7FE0FC060817181828193810C5F6A
:102480001F4FA5010E94C912C82ECA183D2CE894FE
:1024900037F867CF6081718190E080E00E5F1F4F59
:1024A000F0CF42FC02C0839478CF8394839475CF9D
:1024B000842D867809F471CFF6CFB70180E290E0E1
:1024C0000E94991283948214C0F3512C73CF522C22
:1024D0005818821408F46ECFF8CF842D867809F44A
:1024E0007BCF8BE241FE80E247FC8DE2B70190E0BA
:1024F00071CFB70180E390E00E9499129A946CCF5B
:102500008FEF9FEF99CFFC01059061507040011053
:10251000D8F7809590958E0F9F1F0895FC0161500C
:10252000704001900110D8F7809590958E0F9F1FF5
:1025300008950F931F93CF93DF93182F092FEB016B
:102540008B8181FD09C01FEF0FEF812F902FDF914D
:10255000CF911F910F91089582FF14C02E813F816A
:102560008C819D81281739073CF4E881F981CF01DE
:1025700001969983888310838E819F8101969F8322
:102580008E83E3CFE885F985812F0995892BA1F307
:10259000DACFFA01AA27283051F1203181F1E894ED
:1025A0006F936E7F6E5F7F4F8F4F9F4FAF4FB1E046
:1025B0003ED0B4E03CD0670F781F891F9A1FA11D41
:1025C000680F791F8A1F911DA11D6A0F711D811D42
:1025D000911DA11D20D009F468943F912AE0269F07
:1025E00011243019305D3193DEF6CF010895462F66
:1025F0004770405D4193B3E00FD0C9F7F6CF462F47
:102600004F70405D4A3318F0495D31FD40524193AF
:1026100002D0A9F7EACFB4E0A6959795879577956C
:102620006795BA95C9F700976105710508959B01F3
:10263000AC010A2E06945795479537952795BA957C
:10264000C9F7620F731F841F951FA01D089510E026
:10265000C3E6D0E004C0FE010E94630E2196C4369A
:08266000D107C9F7F894FFCF80
:10266800FF00005402800000000000A2020C0239A2
:1026780002EF026A0248025C02234350002356001C
:10268800562E0025642564002353544400563033E5
:102698002F33002352455155492E002353544F5090
:1026A8005F2E002350415553412E0023504C415971
:1026B8005F2E00234F4B2E002344253035642E0017
:00000001FF
