:100000000C9469000C9491000C9491000C94910054
:100010000C9491000C9491000C9491000C940E059A
:100020000C9491000C9491000C9491000C9491000C
:100030000C9491000C9491000C9491000C949100FC
:100040000C94C4040C9491000C9490050C946A05D3
:100050000C9491000C9491000C9491000C949100DC
:100060000C9491000C9491002353544400562E009C
:100070002356000200000000240027002A00000090
:100080000000250028002B000000000023002600AF
:10009000290004040404040404040202020202020B
:1000A000030303030303010204081020408001023C
:1000B00004081020010204081020000000080002BB
:1000C0000100000304070000000000000000C2055A
:1000D0008D0A11241FBECFEFD8E0DEBFCDBF22E0D6
:1000E000A4E5B1E001C01D92A734B207E1F711E029
:1000F000A0E0B1E0E4E7F4E202C005900D92A4357F
:10010000B107D9F710E0C8E6D0E004C02197FE019E
:100110000E945C0DC736D107C9F70E94F9050C94FF
:100120002D120C940000CF92DF92EF92FF9292EF8B
:10013000980F8E3008F0892F8770482F40642FE089
:1001400030E060E070E0CB0140937C0050917A0099
:10015000506450937A0050917A0056FDFCCFC090C5
:100160007800D09079000D2C000CEE08FF086C0D83
:100170007D1D8E1D9F1D2150310931F72FE030E08C
:1001800040E050E00E943D0DDA01C90157FF07C071
:1001900088279927DC01821B930BA40BB50B0997C9
:1001A000A105B1051CF420E030E0A901C901FF90D0
:1001B000EF90DF90CF900895833081F028F4813064
:1001C00099F08230A9F008958730A9F08830C9F0FD
:1001D0008430B1F4809180008F7D03C080918000D5
:1001E0008F7780938000089584B58F7784BD0895BC
:1001F00084B58F7DFBCF8091B0008F778093B00066
:1002000008958091B0008F7DF9CFCF93DF93282F91
:1002100030E0F901E654FF4F8491F901EA55FF4FB0
:10022000D491F901EE56FF4FC491CC23A1F0811176
:100230000E94DC00EC2FF0E0EE0FFF1FE857FF4FAD
:10024000A591B491EC91ED2381E090E009F480E078
:10025000DF91CF91089580E090E0FACF1F93CF9384
:10026000DF93282F30E0F901E654FF4F8491F90124
:10027000EA55FF4FD491F901EE56FF4FC491CC23BC
:10028000A9F0162F81110E94DC00EC2FF0E0EE0F98
:10029000FF1FE258FF4FA591B4918FB7F894EC91EE
:1002A000111108C0D095DE23DC938FBFDF91CF9171
:1002B0001F910895DE2BF8CFCF93DF9390E0FC01E0
:1002C000EA55FF4F24918E569F4FFC01849188235D
:1002D000D1F090E0880F991FFC01EC58FF4FA591D9
:1002E000B491FC01E258FF4FC591D49161110EC049
:1002F0009FB7F8948C91E22FE0958E238C93288100
:10030000E223E8839FBFDF91CF9108958FB7F894E0
:10031000EC91E22BEC938FBFF6CF08959091000102
:1003200089130BC0E3E7F0E0E4919FEF90930001A5
:10033000E13049F028F0E23061F060E00C942E01E9
:1003400010926E00FACF90916F009D7F90936F0096
:10035000F4CF909170009D7F9093700091E0909306
:10036000B0009091B100987F94609093B10010928A
:10037000B300E3CFAF92BF92CF92DF92EF92FF92A2
:100380000F931F93CF93DF936C017B018B01040FBD
:10039000151FEB015E01AE18BF08C017D10759F059
:1003A0006991D601ED91FC910190F081E02DC6019B
:1003B0000995892B79F7C501DF91CF911F910F9195
:1003C000FF90EF90DF90CF90BF90AF900895FC0129
:1003D000538D448D252F30E0842F90E0821B930BAA
:1003E000541710F0CF96089501970895FC01918D50
:1003F000828D981761F0A28DAE0FBF2FB11D5D9653
:100400008C91928D9F5F9F73928F90E008958FEFF4
:100410009FEF0895FC01918D828D981731F0828DA8
:10042000E80FF11D858D90E008958FEF9FEF0895FF
:10043000FC01918D228D892F90E0805C9F4F821B63
:1004400091098F739927089580EA91E00E9418021C
:1004500021E0892B09F420E0822F0895FC01A48D6E
:10046000A80FB92FB11DA35ABF4F2C91848D90E0D6
:1004700001968F739927848FA689B7892C93A089B9
:10048000B1898C91837080648C93938D848D981343
:1004900006C00288F389E02D80818F7D80830895D6
:1004A000EF92FF920F931F93CF93DF93EC0181E0C4
:1004B000888F9B8D8C8D98131AC0E889F98980816B
:1004C00085FF15C09FB7F894EE89FF896083E8899E
:1004D000F98980818370806480839FBF81E090E090
:1004E000DF91CF911F910F91FF90EF900895F62E1D
:1004F0000B8D10E00F5F1F4F0F731127E02E8C8DB7
:100500008E110CC00FB607FCFACFE889F9898081FB
:1005100085FFF5CFCE010E942E02F1CFEB8DEC0FBF
:10052000FD2FF11DE35AFF4FF0829FB7F8940B8F18
:10053000EA89FB8980818062CFCF0F931F93CF938D
:10054000DF938C01D0E0C0E0F801EC0FFD1F649157
:10055000662341F080EA91E00E945002892B11F05D
:100560002196F2CFCE01DF91CF911F910F91089587
:10057000CF93DF93EC01888D8823B9F0AA89BB89DA
:10058000E889F9898C9185FD03C0808186FD0DC0C5
:100590000FB607FCF7CF8C9185FFF2CF808185FFE6
:1005A000EDCFCE010E942E02E9CFDF91CF910895C9
:1005B000FC0101900020E9F73197AF01481B590B6E
:1005C000BC0180EA91E00C94BA01FC018081918128
:1005D000009711F00C94910A60E070E0CB0108954F
:1005E000FC0124813581232B39F421E0FB0180813A
:1005F000882349F020E007C0808191810E946F0F1D
:1006000021E0892BB9F7822F08950F931F93CF9381
:10061000DF938C01EB01FC01808191810097E1F077
:100620006881798161157105A9F0428153812C811E
:100630003D814217530770F00E94780F8C819D8195
:10064000F801958384831D821C82DF91CF911F91D5
:100650000F9108950E94200E88819981F80191835D
:1006600080838A819B81938382838C819D81958302
:100670008483198218821B821A82E5CFCF93DF937D
:10068000EC0188819981009711F00E94200E198257
:1006900018821D821C821B821A82DF91CF910895DD
:1006A000FC0180819181009711F00C94200E089537
:1006B0000F931F93CF93DF93EC018881998100976B
:1006C00059F02A813B812617370730F081E0DF910E
:1006D000CF911F910F9108958B016F5F7F4F0E9403
:1006E000A90E009759F0998388831B830A832C8174
:1006F0003D81232B59F7FC011082E8CF80E0E7CF42
:10070000EF92FF920F931F93CF93DF938C017B01A6
:10071000EB0109900020E9F72197C61BD70BBE011A
:100720000E945803811109C0C801DF91CF911F9128
:100730000F91FF90EF900C943E03F801D583C48392
:10074000B70180819181DF91CF911F910F91FF902F
:10075000EF900C94780FCF93DF9300D0CDB7DEB736
:10076000FC01118210821382128215821482698325
:100770001A82BE016F5F7F4F0E9480030F900F901F
:10078000DF91CF910895CF93DF93EC0170E060E0AB
:100790000E945803811105C0CE01DF91CF910C94C6
:1007A0003E031D821C8260E271E088819981DF91A5
:1007B000CF910C94780FCF92DF92EF92FF920F932C
:1007C0001F93CF93DF93EC016B017A014617570714
:1007D00020F48D2D6A01E62EF82E198218821B82D4
:1007E0001A821D821C82CE010E94C3030091410225
:1007F00010914202C016D10600F5E016F10608F489
:100800008701E0913D02F0913E02E00FF11FF08080
:10081000108260913D0270913E026C0D7D1DCE01F3
:1008200061157105A1F00E94800380913D029091B5
:100830003E02080F191FF801F082CE01DF91CF911F
:100840001F910F91FF90EF90DF90CF9008950E943D
:100850003E03EBCFCF92DF92EF92FF920F931F9365
:10086000CF93DF9300D000D000D0CDB7DEB7EE2419
:10087000E394CC24C394D12C80EA91E00E94180226
:10088000892B09F46CC080EA91E00E94F601F82EF1
:1008900023E282130BC0D0925501C09254016FE144
:1008A00071E08DE392E00E948003E6CF80915401D5
:1008B00090915501019701F7F9821A820091410246
:1008C000109142020F5F1F4FB8018DE392E00E942A
:1008D0005803882399F020913D0230913E02809187
:1008E000410290914202BE016F5F7F4F820F931FC2
:1008F0000E94780F109342020093410280914102BE
:10090000909142028931910548F010925501109260
:1009100054011092960160E271E0C3CF2EE2F21210
:10092000ABCF10925501109254010797A9F043E004
:1009300050E070E060E0CE0101960E94DB0361E2CE
:1009400071E0CE0101960E94F002182FCE010196AF
:100950000E9450031123E9F2E09296018DCF269672
:100960000FB6F894DEBF0FBECDBFDF91CF911F91C0
:100970000F91FF90EF90DF90CF9008950E94240296
:1009800081110C942A0408951F920F920FB60F92B2
:1009900011242F933F938F939F93AF93BF93809195
:1009A0009C0190919D01A0919E01B0919F01309179
:1009B0009B0123E0230F2D3758F50196A11DB11D92
:1009C00020939B0180939C0190939D01A0939E0195
:1009D000B0939F018091970190919801A091990106
:1009E000B0919A010196A11DB11D8093970190933A
:1009F0009801A0939901B0939A01BF91AF919F91F3
:100A00008F913F912F910F900FBE0F901F901895CF
:100A100026E8230F0296A11DB11DD2CF1F920F927F
:100A20000FB60F9211242F933F934F935F936F93C1
:100A30007F938F939F93AF93BF93EF93FF93809197
:100A4000680190916901A0916A01B0916B01892BB5
:100A50008A2B8B2BD1F190916301E0916401F0918D
:100A60006501808189278083809168019091690167
:100A7000A0916A01B0916B01181619061A061B069F
:100A80009CF48091680190916901A0916A01B091F4
:100A90006B010197A109B1098093680190936901E5
:100AA000A0936A01B0936B01FF91EF91BF91AF9159
:100AB0009F918F917F916F915F914F913F912F9176
:100AC0000F900FBE0F901F901895809100010E940B
:100AD0008E01EACF1F920F920FB60F9211242F931F
:100AE0003F934F935F936F937F938F939F93AF93B6
:100AF000BF93EF93FF9380EA91E00E942E02FF9153
:100B0000EF91BF91AF919F918F917F916F915F9185
:100B10004F913F912F910F900FBE0F901F901895FE
:100B20001F920F920FB60F9211242F938F939F93C2
:100B3000EF93FF93E091B001F091B1018081E091DA
:100B4000B601F091B70182FD1BC090818091B9017F
:100B50008F5F8F732091BA01821741F0E091B90144
:100B6000F0E0E056FE4F958F8093B901FF91EF9131
:100B70009F918F912F910F900FBE0F901F901895FE
:100B80008081F4CFE0EAF1E01382128288EE93E0F4
:100B9000A0E0B0E084839583A683B78381E191E0F0
:100BA0009183808385EC90E09587848784EC90E046
:100BB0009787868780EC90E0918B808B81EC90E02A
:100BC000938B828B82EC90E0958B848B86EC90E00B
:100BD000978B868B118E128E138E148EEDE3F2E0BE
:100BE000118210821382128215821482CF010C941A
:100BF000C303CF93DF93CDB7DEB762970FB6F894F8
:100C0000DEBF0FBECDBF789484B5826084BD84B54D
:100C1000816084BD85B5826085BD85B5816085BDF7
:100C200080916E00816080936E00109281008091AF
:100C30008100826080938100809181008160809337
:100C40008100809180008160809380008091B1005C
:100C500084608093B1008091B00081608093B00087
:100C600080917A00846080937A0080917A0082601B
:100C700080937A0080917A00816080937A008091DD
:100C80007A00806880937A001092C10061E085E06C
:100C90000E945C0161E086E00E945C0161E087E007
:100CA0000E945C0161E088E00E945C0161E089E0F3
:100CB0000E945C0160E085E00E942E0160E086E019
:100CC0000E942E0160E087E00E942E0160E088E033
:100CD0000E942E0160E089E00E942E01E091B001A7
:100CE000F091B10182E08083E091AC01F091AD011F
:100CF0001082E091AE01F091AF0180E1808310920B
:100D0000B801E091B401F091B50186E08083E091F3
:100D1000B201F091B301808180618083E091B201E2
:100D2000F091B301808188608083E091B201F091FD
:100D3000B301808180688083E091B201F091B301BA
:100D400080818F7D808368E170E08DE392E00E9476
:100D500058031092950110925801109257014424A3
:100D60004A94542C320111E06CE7262E61E0362EB5
:100D70007FE0872E77E2972EE3E7AE2EE0E0BE2EEF
:100D800080919601882309F442C065E271E08DE309
:100D900092E00E94F002882309F468C01093950144
:100DA0001093580180E790E00E949D0245E050E0DA
:100DB00067E071E080EA91E00E94BA018DE690E080
:100DC0000E949D0288E690E00E949D028091580159
:100DD00061E3811101C060E380EA91E00E9450026A
:100DE0008091570161E3811101C060E380EA91E0E5
:100DF0000E9450026EE280EA91E00E94500260E29E
:100E000071E08DE392E00E94800310929601809140
:100E10009501882309F47CC280919401882309F408
:100E200077C280EA91E00E94E70140970CF470C21B
:100E3000E0917A01F0917B01C12CD12C7601EF3049
:100E4000F10508F063C1E95DF84F0C945C0D5108A1
:100E500070087008B108E708FA081B092C092C096A
:100E60002C092C092C092C092C092C09809195019D
:100E7000882309F4C4CF6DE271E08DE392E00E9413
:100E8000F002882339F01092580110925701F0E0D7
:100E9000E0E0099565E371E08DE392E00E94F002E5
:100EA0008111109294016DE371E08DE392E00E9454
:100EB000F00281111093940143E050E070E060E093
:100EC000CE0101960E94DB0361E271E0CE01019642
:100ED0000E94F002082FCE0101960E9450030023C9
:100EE00009F48DCF1E861D86188A1F861A8A198AD4
:100EF000CE010D960E94C30318861F821A8619869A
:100F00001C861B86CE0107960E94C303E090410217
:100F1000F0904202F4E0EF16F10438F0E0913D0267
:100F2000F0913E02309709F041C010925601E6E57B
:100F3000F1E06081CE0101960E94AB03BE016F5FBC
:100F40007F4FCE010D960E940503CE0101960E94AF
:100F50005003A7014150510964E070E0CE010196B1
:100F60000E94DB03BE016F5F7F4FCE0107960E9498
:100F70000503CE0101960E945003CE010D960E94FA
:100F8000E5026B01CE0107960E94E502F60131975A
:100F9000E730F105A8F4E153F84F0C945C0DD80745
:100FA000E907100815081A081F0846083396C1CF2C
:100FB00070937B0160937A0185E491E00E94D802EE
:100FC000CE0107960E945003CE010D960E94500359
:100FD00016CF8B859C85029720F0EF81F88530979E
:100FE000E9F410925601E6E5F1E06081CE01019648
:100FF0000E94AB03BE016F5F7F4FCE0107960E9438
:101000000503CE0101960E945003CE0107960E946F
:10101000E5027093790160937801CECF3196E5CFE8
:101020007093620160936101C7CF70936001609318
:101030005F01C2CF7093770160937601BDCF8B853E
:101040009C85029720F0EF81F8853097E9F41092A3
:101050005601E6E5F1E06081CE0101960E94AB0306
:10106000BE016F5F7F4FCE0107960E940503CE0140
:1010700001960E945003CE0107960E94E5027093EC
:1010800075016093740198CF3196E5CF70935E013E
:1010900060935D0185E491E00E94D80210935701AE
:1010A0008FCF80917801909179010E949300BC01CB
:1010B000990F880B990B0E94CF0A26E637EF44E27E
:1010C0005EE30E942E0B22E03BEA42E052E40E94E3
:1010D000230C20E030E048EC52E40E942E0BA2C02A
:1010E00080917801909179010E9493006C01990F91
:1010F000EE08FF08C701B6010E94CF0A60935901AC
:1011000070935A0180935B0190935C01809161011F
:10111000909162018130910509F4B2C0823091054D
:1011200009F4FEC070E060E0892B09F0BBC060915B
:101130005D0170915E0180915F0190916001092EC7
:10114000000CAA0BBB0BC816D906EA06FB060CF06E
:10115000A9C091E080E0672B09F090E0692F782F1B
:10116000A1C080917801909179010E949300BC0107
:10117000990F880B990B0E94CF0A20E030E041EED6
:1011800053E40E94380D1816CCF480E090E0A8ECEF
:10119000B2E48093590190935A01A0935B01B093FC
:1011A0005C016091590170915A0180915B019091AD
:1011B0005C010E94020D6B017C01A8CF10925901C5
:1011C00010925A0110925B0110925C01EACF80915B
:1011D0007801909179010E949300BC01990F880BCE
:1011E000990B0E94CF0A2DE930E846E25EE30E94A7
:1011F0002E0B6FCF80917801909179010E9493001E
:10120000BC01990F880B990B0E94CF0A20E030E0B7
:101210004AEF53E40E942E0B20E030EC4FE754E4F9
:101220000E94900C6093590170935A0180935B0166
:1012300090935C01BECF80917801909179010E94DA
:101240009300BC01990F880B990B0E94CF0A20E9EB
:101250003EE34AEF5EE3CBCF0091780160E0802F60
:101260000E945C01802F0E94050124E6289F6001F6
:10127000299FD00C11240D2C000CEE08FF0846CF3E
:1012800060915D0170915E0180915F0190916001BC
:10129000092E000CAA0BBB0BC816D906EA06FB06E2
:1012A00009F457CF809176019091770197FD07C09F
:1012B000823091050CF447C0029709F449C0C092EE
:1012C0009001D0929101E0929201F0929301FF92ED
:1012D000EF92DF92CF924AE451E05F934F931F92D7
:1012E00084E18F933F922F920E947F0F9C012150A7
:1012F00031090FB6F894DEBF0FBECDBF23313105E3
:1013000038F4AC016CE771E080EA91E00E94BA0128
:101310000E942402882309F433CD0E942A0423CD9D
:1013200060915D0170915E0180915F01909160011B
:10133000092E000CAA0BBB0B8C159D05AE05BF0535
:101340000CF0B0CF06CF809174010E942E01B7CF70
:1013500080917401909175016130710509F0DAC0D6
:1013600020910001821315C0F501049107FDA7CF5C
:1013700061E00E945C01002309F487C0023009F09B
:1013800098C08091B100887F84608093B1008BE920
:10139000B1C02F3F09F093CF80930001F501049174
:1013A0000F3F09F48CCF013039F148F0023009F4D5
:1013B00045C007FD84CF61E00E945C01DFCF14BC13
:1013C00015BC24B5226024BD25B5216025BD9C0136
:1013D0003327F901EE56FF4FE491F0E0EE0FFF1FC7
:1013E000E258FF4F45915491F901EA55FF4FE491BE
:1013F000E093670100E0BCCF109280001092810062
:10140000209181002860209381002091810021603B
:10141000209381009C013327F901EE56FF4FE491A0
:10142000F0E0EE0FFF1FE258FF4F45915491F90194
:10143000EA55FF4FE491E09366019ACF1092B00015
:101440001092B1002091B00022602093B000209152
:10145000B10021602093B1009C013327F901EE56C1
:10146000FF4FE491F0E0EE0FFF1FE258FF4F459170
:1014700054915093650140936401F901EA55FF4F7F
:10148000E491E093630102E073CF85B5887F8360C8
:1014900085BD8BE987BD40927001509271016092C9
:1014A00072017092730180916E00826080936E0071
:1014B00006CF0130C1F480918100887F81608093E4
:1014C0008100909289008092880040926C01509235
:1014D0006D0160926E0170926F0180916F00826069
:1014E00080936F00ECCE023021F00111E8CE8FE046
:1014F000D1CF8FE08093B300409268015092690190
:1015000060926A0170926B0180917000826080939A
:101510007000D5CE0E948E01D2CE8DE392E00C9465
:1015200050031F93FC0199278827BC01E89411916F
:101530001032E9F3193010F01E30C8F31B3251F0AD
:101540001D3249F4689406C00E94B80A610F711DEB
:10155000811D911D119110531A30B0F33EF49095F6
:101560008095709561957F4F8F4F9F4F1F91089584
:10157000592F482F372F262F660F771F881F991F47
:10158000660F771F881F991F620F731F841F951F97
:10159000660F771F881F991F0895E89409C097FB6D
:1015A0003EF490958095709561957F4F8F4F9F4F3A
:1015B0009923A9F0F92F96E9BB279395F69587957E
:1015C00077956795B795F111F8CFFAF4BB0F11F441
:1015D00060FF1BC06F5F7F4F8F4F9F4F16C08823E8
:1015E00011F096E911C0772321F09EE8872F762F1E
:1015F00005C0662371F096E8862F70E060E02AF05F
:101600009A95660F771F881FDAF7880F969587954A
:1016100097F90895990F0008550FAA0BE0E8FEEF1F
:1016200016161706E807F907C0F012161306E407A6
:10163000F50798F0621B730B840B950B39F40A269F
:1016400061F0232B242B252B21F408950A2609F47D
:10165000A140A6958FEF811D811D08950E94410B29
:101660000C94B20B0E94A40B38F00E94AB0B20F03C
:10167000952311F00C949B0B0C94A10B11240C944A
:10168000E60B0E94C30B70F3959FC1F3950F50E0DA
:10169000551F629FF001729FBB27F00DB11D639F24
:1016A000AA27F00DB11DAA1F649F6627B00DA11DCA
:1016B000661F829F2227B00DA11D621F739FB00D70
:1016C000A11D621F839FA00D611D221F749F3327E0
:1016D000A00D611D231F849F600D211D822F762F79
:1016E0006A2F11249F5750409AF0F1F088234AF056
:1016F000EE0FFF1FBB1F661F771F881F91505040C2
:10170000A9F79E3F510580F00C949B0B0C94E60BBF
:101710005F3FE4F3983ED4F3869577956795B79548
:10172000F795E7959F5FC1F7FE2B880F911D969562
:10173000879597F9089597F99F6780E870E060E0D2
:1017400008959FEF80EC089500240A94161617065A
:1017500018060906089500240A94121613061406A2
:1017600005060895092E0394000C11F4882352F005
:10177000BB0F40F4BF2B11F460FF04C06F5F7F4FBD
:101780008F4F9F4F089557FD9058440F551F59F0A4
:101790005F3F71F04795880F97FB991F61F09F3F5E
:1017A00079F087950895121613061406551FF2CF87
:1017B0004695F1DF08C0161617061806991FF1CFD7
:1017C00086957105610508940895E894BB276627FE
:1017D0007727CB0197F908952F923F924F925F920E
:1017E0006F927F928F929F92AF92BF92CF92DF9231
:1017F000EF92FF920F931F93CF93DF93CDB7DEB796
:10180000CA1BDB0B0FB6F894DEBF0FBECDBF099429
:101810002A88398848885F846E847D848C849B8480
:10182000AA84B984C884DF80EE80FD800C811B818E
:10183000AA81B981CE0FD11D0FB6F894DEBF0FBEBD
:10184000CDBFED0108955058BB27AA270E943B0C3D
:101850000C94B20B0E94A40B38F00E94AB0B20F04A
:1018600039F49F3F19F426F40C94A10B0EF4E09583
:10187000E7FB0C949B0BE92F0E94C30B58F3BA179C
:10188000620773078407950720F079F4A6F50C9496
:10189000E50B0EF4E0950B2EBA2FA02D0B01B9012C
:1018A00090010C01CA01A0011124FF27591B99F0D6
:1018B000593F50F4503E68F11A16F040A22F232FE2
:1018C000342F4427585FF3CF469537952795A79532
:1018D000F0405395C9F77EF41F16BA0B620B730BD9
:1018E000840BBAF09150A1F0FF0FBB1F661F771F4A
:1018F000881FC2F70EC0BA0F621F731F841F48F4FF
:10190000879577956795B795F7959E3F08F0B0CF87
:101910009395880F08F09927EE0F9795879508956E
:101920000E94A40C0C94B20B0E94AB0B58F00E94C6
:10193000A40B40F029F45F3F29F00C949B0B51114C
:101940000C94E60B0C94A10B0E94C30B68F3992333
:10195000B1F3552391F3951B550BBB27AA276217AB
:101960007307840738F09F5F5F4F220F331F441FB8
:10197000AA1FA9F335D00E2E3AF0E0E832D09150EC
:101980005040E695001CCAF72BD0FE2F29D0660FD9
:10199000771F881FBB1F261737074807AB07B0E81C
:1019A00009F0BB0B802DBF01FF2793585F4F3AF022
:1019B0009E3F510578F00C949B0B0C94E60B5F3F17
:1019C000E4F3983ED4F3869577956795B795F795A8
:1019D0009F5FC9F7880F911D9695879597F9089590
:1019E000E1E0660F771F881FBB1F6217730784072C
:1019F000BA0720F0621B730B840BBA0BEE1F88F73B
:101A0000E09508950E94090D6894B1110C94E60BBD
:101A100008950E94CB0B88F09F5798F0B92F992713
:101A2000B751B0F0E1F0660F771F881F991F1AF0C9
:101A3000BA95C9F714C0B13091F00E94E50BB1E03E
:101A400008950C94E50B672F782F8827B85F39F03D
:101A5000B93FCCF3869577956795B395D9F73EF462
:101A600090958095709561957F4F8F4F9F4F08950A
:101A70000E940A0B08F48FEF0895052E97FB1EF4C1
:101A800000940E94540D57FD07D00E94620D07FC80
:101A900003D04EF40C94540D5095409530952195FB
:101AA0003F4F4F4F5F4F089590958095709561958A
:101AB0007F4F8F4F9F4F0895EE0FFF1F0590F491BA
:101AC000E02D0994A1E21A2EAA1BBB1BFD010DC03B
:101AD000AA1FBB1FEE1FFF1FA217B307E407F507DE
:101AE00020F0A21BB30BE40BF50B661F771F881FBA
:101AF000991F1A9469F760957095809590959B0150
:101B0000AC01BD01CF0108950F931F93CF93DF93D5
:101B10008230910510F482E090E0E0914502F0916E
:101B2000460230E020E0B0E0A0E0309799F42115C3
:101B3000310509F44AC0281B390B24303105D8F58A
:101B40008A819B816115710589F1FB0193838283F1
:101B5000FE0111C04081518102811381481759074C
:101B6000E0F04817590799F4109761F012960C931A
:101B7000129713961C933296CF01DF91CF911F914C
:101B80000F9108950093450210934602F4CF21155A
:101B9000310551F04217530738F0A901DB019A01D2
:101BA000BD01DF01F801C1CFEF01F9CF90934602EB
:101BB00080934502CDCFFE01E20FF31F81939193F5
:101BC0002250310939832883D7CF209143023091A5
:101BD0004402232B41F420910301309104013093FE
:101BE000440220934302209101013091020121150A
:101BF000310541F42DB73EB74091050150910601E2
:101C0000241B350BE0914302F0914402E217F307E5
:101C1000A0F42E1B3F0B2817390778F0AC014E5F5C
:101C20005F4F2417350748F04E0F5F1F5093440253
:101C300040934302819391939FCFF0E0E0E09CCFEB
:101C4000CF93DF930097E9F0FC0132971382128261
:101C5000A0914502B0914602ED0130E020E01097DE
:101C6000A1F420813181820F931F20914302309192
:101C700044022817390709F061C0F0934402E09349
:101C80004302DF91CF910895EA01CE17DF07E8F50F
:101C90004A815B819E0141155105B1F7E901FB8342
:101CA000EA8349915991C40FD51FEC17FD0761F4E0
:101CB000808191810296840F951FE9019983888321
:101CC000828193819B838A83F0E0E0E012968D917C
:101CD0009C9113970097B9F52D913C911197CD01E7
:101CE0000296820F931F20914302309144022817DD
:101CF000390739F6309751F5109246021092450295
:101D0000B0934402A0934302BCCFD383C2834081EB
:101D10005181840F951FC817D90761F44E5F5F4F3B
:101D200088819981480F591F518340838A819B8103
:101D3000938382832115310509F0B0CFF0934602D9
:101D4000E09345029ECFFD01DC01C0CF13821282D9
:101D5000D7CFB0E0A0E0EFEAFEE00C94EE0B8C01F0
:101D6000009751F4CB010E94840D8C01C801CDB7BE
:101D7000DEB7E0E10C940A0CFC01E60FF71F9C01B2
:101D800022503109E217F30708F49DC0D901CD9123
:101D9000DC911197C617D70798F0C530D10530F3FD
:101DA000CE0104978617970708F3C61BD70B229717
:101DB000C193D1936D937C93CF010E94200ED6CF17
:101DC0005B01AC1ABD0A4C018C0E9D1EA091450210
:101DD000B0914602512C412CF12CE12C109731F599
:101DE00080914302909144028815990509F05CC0E6
:101DF0004616570608F058C08091010190910201E3
:101E0000009741F48DB79EB74091050150910601AE
:101E1000841B950BE817F90708F055C0F0934402AE
:101E2000E0934302F90171836083A0CF8D919C916F
:101E3000119712966C90129713967C901397A81591
:101E4000B90559F56C0142E0C40ED11CCA14DB047B
:101E500020F1AC014A195B09DA011296159780F05E
:101E60006282738251834083D9016D937C93E11424
:101E7000F10471F0D7011396FC93EE93129776CF8D
:101E800022968C0F9D1FF90191838083F301EFCF80
:101E9000F0934602E093450269CF4816590608F4CC
:101EA0002C017D01D3019ACFCB010E94840D7C01CE
:101EB000009749F0AE01B8010E94660FC8010E9468
:101EC000200E870153CF10E000E050CFFB01DC0172
:101ED00002C001900D9241505040D8F70895FB0187
:101EE000DC018D91019080190110D9F3990B0895AF
:101EF000FB01DC0101900D920020E1F70895AEE0B6
:101F0000B0E0E5E8FFE00C94FA0B0D891E898F899B
:101F1000988D26E02C831A83098397FF02C080E006
:101F200090E801979E838D83AE01455E5F4F698D7A
:101F30007A8DCE0101960E94AF0F4D815E8157FDD3
:101F40000AC02F813885421753070CF49A01020FFB
:101F5000131FF80110822E96E4E00C94160CABE0EF
:101F6000B0E0E5EBFFE00C94EC0B7C013B018A0157
:101F7000FC0117821682838181FFC8C1CE010196C0
:101F80005C01F7019381F30193FD859193FF8191AA
:101F90003F01882309F453C1853239F493FD8591BB
:101FA00093FF81913F01853229F4B70190E00E94AF
:101FB0009F11E7CF912C212C312CFFE1F31538F044
:101FC0008B3211F190F4803209F1833229F137FC20
:101FD0003CC020ED280F2A3050F536FE20C08AE0A4
:101FE000989E200D1124922E06C08D3291F08033E0
:101FF00071F7689430F8F30193FD859193FF819117
:102000003F018111DACF21C0689431F8689432F829
:10201000F2CF689433F8EFCF689434F8ECCFEAE06D
:102020002E9E200D1124222E689435F8E4CF8E3296
:1020300029F436FC04C1689436F8DDCF8C3619F4E7
:10204000689437F8D8CF8836B1F2982F9F7D955491
:102050009330E0F08336A1F18337C1F1833509F085
:1020600063C02801F2E04F0E511CF801C080D180FE
:10207000692D70E036FC02C06FEF7FEFC6010E9451
:1020800089114C01689437F882010AC00C5F1F4F18
:10209000FFE3F98388248394912C6501E89437F851
:1020A00033FE2DC0522C8114910471F5552009F492
:1020B00068CFB70180E290E00E949F115A94F6CF5A
:1020C000F801808189830E5F1F4FE4CF2801F2E081
:1020D0004F0E511CF801C080D180692D70E036FC94
:1020E00002C06FEF7FEFC6010E9494114C01820184
:1020F000D5CFB70180E290E00E949F112A94281466
:10210000190409F0B0F7CECFF60137FC859137FE00
:1021100081916F01B70190E00E949F1151105A9474
:10212000F1E08F1A9108BFCF843619F0893609F093
:1021300077C0F80137FE6BC0608171818281938125
:102140000C5F1F4FF32DFF763F2E97FF09C0909530
:102150008095709561957F4F8F4F9F4F689437F8AA
:102160002AE030E0A5010E94CF11C82ECA188C2C9D
:10217000432C36FE0CC0E89440F8C91440F434FEF9
:1021800005C032FC03C0F32DFE7E4F2E892C44FE89
:1021900095C0FE01EC0DF11D8081803309F087C0F0
:1021A000242D297E422E842D8870582E43FC95C004
:1021B00040FE8FC09C2C821418F42C0C922C981882
:1021C00044FE91C0B70180E390E00E949F1142FE5F
:1021D00009C088E790E041FE02C088E590E0B701C1
:1021E0000E949F11C91408F48AC0CA94D12C9FEF91
:1021F000C91AD90ACA0CDB1CF60182916F01B7011A
:1022000090E00E949F11AC14BD04B1F74FCF6081E4
:102210007181072E000C880B990B0E5F1F4F92CF18
:10222000D32CE894D4F82AE030E0853739F1232D17
:10223000297FD22E8F3601F148F48835A9F0F701B5
:10224000868197812B96E2E10C94080C803749F047
:102250008837A9F7D4FE02C06894D2F820E130E0B4
:102260000DC06894D4F8F6CF34FE03C0822F866088
:10227000D82E20E132E002C028E030E0F801D7FE9D
:102280000FC060817181828193810C5F1F4FA50116
:102290000E94CF11C82ECA183D2CE89437F867CF9A
:1022A0006081718190E080E00E5F1F4FF0CF42FCB3
:1022B00002C0839478CF8394839475CF842D8678DD
:1022C00009F471CFF6CFB70180E290E00E949F1130
:1022D00083948214C0F3512C73CF522C581882145B
:1022E00008F46ECFF8CF842D867809F47BCF8BE28B
:1022F00041FE80E247FC8DE2B70190E071CFB7016B
:1023000080E390E00E949F119A946CCF8FEF9FEF33
:1023100099CFFC010590615070400110D8F780956D
:1023200090958E0F9F1F0895FC01615070400190A1
:102330000110D8F7809590958E0F9F1F08950F93E9
:102340001F93CF93DF93182F092FEB018B8181FD12
:1023500009C01FEF0FEF812F902FDF91CF911F91B9
:102360000F91089582FF14C02E813F818C819D8141
:10237000281739073CF4E881F981CF010196998348
:10238000888310838E819F8101969F838E83E3CF04
:10239000E885F985812F0995892BA1F3DACFFA0118
:1023A000AA27283051F1203181F1E8946F936E7F94
:1023B0006E5F7F4F8F4F9F4FAF4FB1E03ED0B4E085
:1023C0003CD0670F781F891F9A1FA11D680F791FC6
:1023D0008A1F911DA11D6A0F711D811D911DA11DD7
:1023E00020D009F468943F912AE0269F11243019E7
:1023F000305D3193DEF6CF010895462F4770405D82
:102400004193B3E00FD0C9F7F6CF462F4F70405D30
:102410004A3318F0495D31FD4052419302D0A9F78B
:10242000EACFB4E0A6959795879577956795BA9585
:10243000C9F700976105710508959B01AC010A2E4B
:1024400006945795479537952795BA95C9F7620F22
:10245000731F841F951FA01D089510E0C8E6D0E0EB
:1024600004C0FE010E945C0D2196C936D107C9F750
:04247000F894FFCF0E
:10247400FF0000470280005630332F340000000074
:10248400005002BA01E701B8021802F6010A022359
:1024940000234350002352455155492E00235354E1
:1024A4004F505F2E002350415553412E0023504C72
:1024B40041595F2E00234F4B2E0023442530356CA9
:0424C400642E000082
:00000001FF
