:100000000C9469000C9491000C9491000C94910054
:100010000C9491000C9491000C9491000C941E058A
:100020000C9491000C9491000C9491000C9491000C
:100030000C9491000C9491000C9491000C949100FC
:100040000C94D4040C9491000C94A0050C947A05A3
:100050000C9491000C9491000C9491000C949100DC
:100060000C9491000C9491002353544400562E009C
:100070002356000200000000240027002A00000090
:100080000000250028002B000000000023002600AF
:10009000290004040404040404040202020202020B
:1000A000030303030303010204081020408001023C
:1000B00004081020010204081020000000080002BB
:1000C0000100000304070000000000000000D2054A
:1000D0007E0A11241FBECFEFD8E0DEBFCDBF22E0E5
:1000E000A4E5B1E001C01D92A334B207E1F711E02D
:1000F000A0E0B1E0E0E2F3E202C005900D92A43589
:10010000B107D9F710E0C8E6D0E004C02197FE019E
:100110000E94B20CC736D107C9F70E9409060C9499
:1001200083110C940000833081F028F4813099F021
:100130008230A9F008958730A9F08830C9F0843062
:10014000B1F4809180008F7D03C0809180008F7713
:1001500080938000089584B58F7784BD089584B519
:100160008F7DFBCF8091B0008F778093B000089592
:100170008091B0008F7DF9CFCF93DF93282F30E0AF
:10018000F901E654FF4F8491F901EA55FF4FD491EC
:10019000F901EE56FF4FC491CC23A1F081110E94CA
:1001A0009300EC2FF0E0EE0FFF1FE857FF4FA591F3
:1001B000B491EC91ED2381E090E009F480E0DF91CF
:1001C000CF91089580E090E0FACF1F93CF93DF9313
:1001D000282F30E0F901E654FF4F8491F901EA55E8
:1001E000FF4FD491F901EE56FF4FC491CC23A9F0F3
:1001F000162F81110E949300EC2FF0E0EE0FFF1FED
:10020000E258FF4FA591B4918FB7F894EC9111117A
:1002100008C0D095DE23DC938FBFDF91CF911F9173
:100220000895DE2BF8CFCF93DF9390E0FC01EA55E1
:10023000FF4F24918E569F4FFC0184918823D1F06B
:1002400090E0880F991FFC01EC58FF4FA591B491E5
:10025000FC01E258FF4FC591D49161110EC09FB7C8
:10026000F8948C91E22FE0958E238C932881E223E1
:10027000E8839FBFDF91CF9108958FB7F894EC91F9
:10028000E22BEC938FBFF6CF8E3008F08E50877044
:10029000806480937C0080917A00806480937A00EF
:1002A00080917A0086FDFCCF809178009091790052
:1002B0000895CF92DF92EF92FF921F93CF93DF9337
:1002C000182FCFE0D0E0C12CD12C7601812F0E94D5
:1002D0004401092E000CAA0BBB0BC80ED91EEA1E46
:1002E000FB1E219799F7C701B6012FE030E040E0EF
:1002F00050E00E94930CDA01C90157FF07C088271C
:100300009927DC01821B930BA40BB50B0997A10560
:10031000B1051CF420E030E0A901C901DF91CF91C3
:100320001F91FF90EF90DF90CF90089508959091E6
:10033000000189130BC0E3E7F0E0E4919FEF909395
:100340000001E13049F028F0E23061F060E00C9407
:10035000E50010926E00FACF90916F009D7F909310
:100360006F00F4CF909170009D7F9093700091E0AA
:100370009093B0009091B100987F94609093B100F9
:100380001092B300E3CFAF92BF92CF92DF92EF9281
:10039000FF920F931F93CF93DF936C017B018B012F
:1003A000040F151FEB015E01AE18BF08C017D1077F
:1003B00059F06991D601ED91FC910190F081E02D09
:1003C000C6010995892B79F7C501DF91CF911F915E
:1003D0000F91FF90EF90DF90CF90BF90AF90089576
:1003E000FC01538D448D252F30E0842F90E0821B3B
:1003F000930B541710F0CF96089501970895FC01C0
:10040000918D828D981761F0A28DAE0FBF2FB11D17
:100410005D968C91928D9F5F9F73928F90E008956F
:100420008FEF9FEF0895FC01918D828D981731F029
:10043000828DE80FF11D858D90E008958FEF9FEF7D
:100440000895FC01918D228D892F90E0805C9F4F53
:10045000821B91098F73992708958CE991E00E947E
:10046000210221E0892B09F420E0822F0895FC016C
:10047000A48DA80FB92FB11DA35ABF4F2C91848D05
:1004800090E001968F739927848FA689B7892C9362
:10049000A089B1898C91837080648C93938D848DB5
:1004A000981306C00288F389E02D80818F7D8083B8
:1004B0000895EF92FF920F931F93CF93DF93EC0178
:1004C00081E0888F9B8D8C8D98131AC0E889F989FB
:1004D000808185FF15C09FB7F894EE89FF896083FE
:1004E000E889F98980818370806480839FBF81E07F
:1004F00090E0DF91CF911F910F91FF90EF900895C1
:10050000F62E0B8D10E00F5F1F4F0F731127E02E9B
:100510008C8D8E110CC00FB607FCFACFE889F989D3
:10052000808185FFF5CFCE010E943702F1CFEB8DA0
:10053000EC0FFD2FF11DE35AFF4FF0829FB7F894A7
:100540000B8FEA89FB8980818062CFCF0F931F9345
:10055000CF93DF938C01D0E0C0E0F801EC0FFD1FDA
:100560006491662341F08CE991E00E945902892B45
:1005700011F02196F2CFCE01DF91CF911F910F9113
:100580000895CF93DF93EC01888D8823B9F0AA8971
:10059000BB89E889F9898C9185FD03C0808186FD3E
:1005A0000DC00FB607FCF7CF8C9185FFF2CF80818D
:1005B00085FFEDCFCE010E943702E9CFDF91CF91C9
:1005C00008950E945901BC01990F880B990B089559
:1005D000FC0101900020E9F73197AF01481B590B4E
:1005E000BC018CE991E00C94C301FC0180819181F4
:1005F000009711F00C94820A60E070E0CB0108953E
:10060000FC0124813581232B39F421E0FB01808119
:10061000882349F020E007C0808191810E94C50EA7
:1006200021E0892BB9F7822F08950F931F93CF9361
:10063000DF938C01EB01FC01808191810097E1F057
:100640006881798161157105A9F0428153812C81FE
:100650003D814217530770F00E94CE0E8C819D8120
:10066000F801958384831D821C82DF91CF911F91B5
:100670000F9108950E94760D88819981F8019183E8
:1006800080838A819B81938382838C819D819583E2
:100690008483198218821B821A82E5CFCF93DF935D
:1006A000EC0188819981009711F00E94760D1982E2
:1006B00018821D821C821B821A82DF91CF910895BD
:1006C000FC0180819181009711F00C94760D0895C2
:1006D0000F931F93CF93DF93EC018881998100974B
:1006E00059F02A813B812617370730F081E0DF91EE
:1006F000CF911F910F9108958B016F5F7F4F0E94E3
:10070000FF0D009759F0998388831B830A832C81FE
:100710003D81232B59F7FC011082E8CF80E0E7CF21
:10072000CF93DF93EC0170E060E00E9468038111D9
:1007300005C0CE01DF91CF910C944E031D821C8227
:1007400060E271E088819981DF91CF910C94CE0EA7
:10075000EF92FF920F931F93CF93DF938C017B0156
:10076000EB0109900020E9F72197C61BD70BBE01CA
:100770000E946803811109C0C801DF91CF911F91C8
:100780000F91FF90EF900C944E03F801D583C48332
:10079000B70180819181DF91CF911F910F91FF90DF
:1007A000EF900C94CE0ECF92DF92EF92FF920F93C8
:1007B0001F93CF93DF93EC016B017A014617570724
:1007C00020F48D2D6A01E62EF82E198218821B82E4
:1007D0001A821D821C82CE010E94900300913D026C
:1007E00010913E02C016D10600F5E016F10608F49D
:1007F0008701E0913902F0913A02E00FF11FF08099
:1008000010826091390270913A026C0D7D1DCE010B
:1008100061157105A1F00E94A803809139029091A1
:100820003A02080F191FF801F082CE01DF91CF9133
:100830001F910F91FF90EF90DF90CF9008950E944D
:100840004E03EBCFCF93DF9300D0CDB7DEB7FC01E3
:1008500011821082138212821582148269831A8295
:10086000BE016F5F7F4F0E94A8030F900F90DF9132
:10087000CF910895CF92DF92EF92FF920F931F9343
:10088000CF93DF9300D000D000D0CDB7DEB7EE24F9
:10089000E394CC24C394D12C8CE991E00E942102F2
:1008A000892B09F46CC08CE991E00E94FF01F82EBD
:1008B00023E282130BC0D0925501C09254016FE124
:1008C00071E089E392E00E94A803E6CF8091540191
:1008D00090915501019701F7F9821A8200913D022A
:1008E00010913E020F5F1F4FB80189E392E00E9412
:1008F0006803882399F02091390230913A0280915F
:100900003D0290913E02BE016F5F7F4F820F931FA9
:100910000E94CE0E10933E0200933D0280913D0254
:1009200090913E028931910548F010925501109244
:1009300054011092920160E271E0C3CF2EE2F212F4
:10094000ABCF10925501109254010797A9F043E0E4
:1009500050E070E060E0CE0101960E94D30361E2B6
:1009600071E0CE0101960E940003182FCE0101967E
:100970000E9460031123E9F2E09292018DCF269646
:100980000FB6F894DEBF0FBECDBFDF91CF911F91A0
:100990000F91FF90EF90DF90CF9008950E942D026D
:1009A00081110C943A0408951F920F920FB60F9282
:1009B00011242F933F938F939F93AF93BF93809175
:1009C000980190919901A0919A01B0919B01309169
:1009D000970123E0230F2D3758F50196A11DB11D76
:1009E000209397018093980190939901A0939A0185
:1009F000B0939B018091930190919401A0919501F6
:100A0000B09196010196A11DB11D80939301909321
:100A10009401A0939501B0939601BF91AF919F91DE
:100A20008F913F912F910F900FBE0F901F901895AF
:100A300026E8230F0296A11DB11DD2CF1F920F925F
:100A40000FB60F9211242F933F934F935F936F93A1
:100A50007F938F939F93AF93BF93EF93FF93809177
:100A6000640190916501A0916601B0916701892BA5
:100A70008A2B8B2BD1F190915F01E0916001F09175
:100A80006101808189278083809164019091650153
:100A9000A0916601B0916701181619061A061B0687
:100AA0009CF48091640190916501A0916601B091E0
:100AB00067010197A109B1098093640190936501D1
:100AC000A0936601B0936701FF91EF91BF91AF9141
:100AD0009F918F917F916F915F914F913F912F9156
:100AE0000F900FBE0F901F901895809100010E94EB
:100AF0009701EACF1F920F920FB60F9211242F93F6
:100B00003F934F935F936F937F938F939F93AF9395
:100B1000BF93EF93FF938CE991E00E943702FF911E
:100B2000EF91BF91AF919F918F917F916F915F9165
:100B30004F913F912F910F900FBE0F901F901895DE
:100B40001F920F920FB60F9211242F938F939F93A2
:100B5000EF93FF93E091AC01F091AD018081E091C2
:100B6000B201F091B30182FD1BC090818091B5016B
:100B70008F5F8F732091B601821741F0E091B5012C
:100B8000F0E0E456FE4F958F8093B501FF91EF9111
:100B90009F918F912F910F900FBE0F901F901895DE
:100BA0008081F4CFECE9F1E01382128288EE93E0C9
:100BB000A0E0B0E084839583A683B78381E191E0D0
:100BC0009183808385EC90E09587848784EC90E026
:100BD0009787868780EC90E0918B808B81EC90E00A
:100BE000938B828B82EC90E0958B848B86EC90E0EB
:100BF000978B868B118E128E138E148EE9E3F2E0A2
:100C0000118210821382128215821482CF010C94F9
:100C10009003CF93DF93CDB7DEB762970FB6F8940A
:100C2000DEBF0FBECDBF789484B5826084BD84B52D
:100C3000816084BD85B5826085BD85B5816085BDD7
:100C400080916E00816080936E001092810080918F
:100C50008100826080938100809181008160809317
:100C60008100809180008160809380008091B1003C
:100C700084608093B1008091B00081608093B00067
:100C800080917A00846080937A0080917A008260FB
:100C900080937A0080917A00816080937A008091BD
:100CA0007A00806880937A001092C10060E085E04D
:100CB0000E94130160E086E00E94130160E087E07B
:100CC0000E94130160E088E00E94130160E089E067
:100CD0000E941301E091AC01F091AD0182E08083AC
:100CE000E091A801F091A9011082E091AA01F09190
:100CF000AB0180E180831092B401E091B001F091EA
:100D0000B10186E08083E091AE01F091AF01808176
:100D100080618083E091AE01F091AF0180818860B5
:100D20008083E091AE01F091AF0180818068808383
:100D3000E091AE01F091AF0180818F7D808368E109
:100D400070E089E392E00E94680310929101109292
:100D500058011092570122242A94322C2101772421
:100D6000739463E7862E60E0962E8091920188232B
:100D700009F442C065E271E089E392E00E94000359
:100D8000882309F466C0709291017092580180E73F
:100D900090E00E94A60245E050E067E071E08CE937
:100DA00091E00E94C3018DE690E00E94A60288E6D1
:100DB00090E00E94A6028091580161E3811101C078
:100DC00060E38CE991E00E9459028091570161E350
:100DD000811101C060E38CE991E00E9459026EE24A
:100DE0008CE991E00E94590260E271E089E392E0AF
:100DF0000E94A8031092920180919101882309F426
:100E000068C280919001882309F463C28CE991E063
:100E10000E94F00140970CF45CC2E0917601F091E1
:100E20007701E031F10508F0C4C1E75EF84F0C949A
:100E3000B20C430864087F0886088D08A008A7083C
:100E4000B808B808B808B808B808B808B808CC088E
:100E5000B80880919101882309F4C6CF6DE271E052
:100E600089E392E00E940003882339F01092580130
:100E700010925701F0E0E0E0099565E371E089E345
:100E800092E00E9400038111109290016DE371E0E5
:100E900089E392E00E94000381117092900143E087
:100EA00050E070E060E0CE0101960E94D30361E261
:100EB00071E0CE0101960E940003182FCE01019629
:100EC0000E946003112309F48FCF1E861D86188AA5
:100ED0001F861A8A198ACE010D960E9490031886E1
:100EE0001F821A8619861C861B86CE0107960E94D1
:100EF000900300913D0210913E020430110538F03C
:100F0000E0913902F0913A02309709F041C0109215
:100F10005601E6E5F1E06081CE0101960E942204CF
:100F2000BE016F5F7F4FCE010D960E941503CE016B
:100F300001960E946003A8014150510964E070E0ED
:100F4000CE0101960E94D303BE016F5F7F4FCE0199
:100F500007960E941503CE0101960E946003CE0100
:100F60000D960E94F5026B01CE0107960E94F502D4
:100F7000F6013197E730F105A8F4EF53F84F0C94E0
:100F8000B20CCA07DB07020807080C08110838086A
:100F90003396C1CF709377016093760185E491E039
:100FA0000E94E802CE0107960E946003CE010D96D2
:100FB0000E94600319CF8B859C85029720F0EF81FA
:100FC000F8853097E9F410925601E6E5F1E060818A
:100FD000CE0101960E942204BE016F5F7F4FCE01B9
:100FE00007960E941503CE0101960E946003CE0170
:100FF00007960E94F5027093750160937401CECF3D
:101000003196E5CF70935E0160935D01C7CF709319
:101010005C0160935B01C2CF7093710160937001BA
:10102000BDCF8B859C85029720F0EF81F8853097A6
:10103000E9F410925601E6E5F1E06081CE010196F7
:101040000E942204BE016F5F7F4FCE0107960E946F
:101050001503CE0101960E946003CE0107960E94FF
:10106000F502709373016093720198CF3196E5CFCA
:1010700070935A016093590185E491E00E94E8025F
:10108000709257018FCF80917401909175010E94E9
:101090005901BC01990F880B990B0E94C00A26E6E2
:1010A00037EF44E25EE30E94FB0A22E03BEA42E0C3
:1010B00052E40E94F00B20E030E048EC52E40E9441
:1010C000FB0A0E945D0C06C080917401909175012D
:1010D0000E94E1026B017C0180915D0190915E01B3
:1010E0008230910509F4FDC00CF067C0009709F447
:1010F0007DC0019709F493C010E000E0A1C0809189
:101100007401909175010E94E102E4CF8091740115
:10111000909175010E94E102DDCF80917401909160
:1011200075010E945901BC01990F880B990B0E940F
:10113000C00A2DE930E846E25EE30E94FB0ABBCF1D
:1011400080917401909175010E94E102C3CF80915A
:101150007401909175010E945901BC01990F880B8F
:10116000990B0E94C00A20E93EE34AEF5EE3E5CF17
:101170001091740160E0812F0E941301812F0E9461
:10118000BC0024E6289F6001299FD00C11240D2C5F
:10119000000CEE08FF08A0CF809174010E9444016A
:1011A00054E6C52ED12CE12CF12C811592400CF087
:1011B00093CFC12CD12C76018FCF8330910509F4C8
:1011C000A3C0049709F098CF0091590110915A01DA
:1011D00080915B0190915C01092E000CAA0BBB0B66
:1011E000C816D906EA06FB065CF111C00091590148
:1011F00010915A0180915B0190915C01092E000CC5
:10120000AA0BBB0BC816D906EA06FB06CCF491E084
:1012100080E0012B09F090E0092F182F11C00091F8
:10122000590110915A0180915B0190915C01092E46
:10123000000CAA0BBB0BC816D906EA06FB0639F34D
:10124000A0907201B090730161E08A2D0E94130199
:1012500080917001909171018130910509F467C00E
:101260008230910509F465C0892B41F461E00130B9
:10127000110509F460E08A2D0E94E500C0928C01FE
:10128000D0928D01E0928E01F0928F01FF92EF9249
:10129000DF92CF928AE491E09F938F931F9284E133
:1012A0008F9348E751E05F934F930E94D50E9C01C6
:1012B000215031090FB6F894DEBF0FBECDBF2331E8
:1012C000310538F4AC0168E771E08CE991E00E94E7
:1012D000C3010E942D02882309F447CD0E943A04DD
:1012E0003ECD0091590110915A0180915B0190917E
:1012F0005C01092E000CAA0BBB0B8C159D05AE05DD
:10130000BF050CF09DCF83CF0091590110915A0178
:1013100080915B0190915C01092E000CAA0BBB0B24
:101320008C159D05AE05BF050CF48ACF70CF602FDC
:10133000A2CF0130110509F0DDC080910001A81293
:1013400016C0F401149117FD99CF61E08A2D0E9417
:101350001301112309F487C0123009F098C080915D
:10136000B100887F84608093B1008BE9B3C08F3F68
:1013700009F084CFA0920001F40114911F3F09F4F9
:101380007DCF113041F150F0123009F446C017FD05
:1013900075CF61E08A2D0E941301DECF14BC15BC0D
:1013A00084B5826084BD85B5816085BDC5019927FE
:1013B000FC01EE56FF4FE491F0E0EE0FFF1FE25804
:1013C000FF4F25913491FC01EA55FF4FE491E093E2
:1013D000630110E0BACF10928000109281008091DA
:1013E000810088608093810080918100816080937A
:1013F0008100C5019927FC01EE56FF4FE491F0E012
:10140000EE0FFF1FE258FF4F25913491FC01EA5582
:10141000FF4FE491E093620198CF1092B0001092D8
:10142000B1008091B00082608093B0008091B100E3
:1014300081608093B100C5019927FC01EE56FF4FF2
:10144000E491F0E0EE0FFF1FE258FF4F2591349139
:101450003093610120936001FC01EA55FF4FE49154
:10146000E0935F0172CF85B5887F836085BD8BE98E
:1014700087BD20926C0130926D0140926E015092B6
:101480006F0180916E00826080936E00F7CE113004
:10149000D1F480918100887F8160809381004FE04A
:1014A00057E250938900409388002092680130925F
:1014B000690140926A0150926B0180916F008260D5
:1014C00080936F00DBCE123021F01111D7CE8FE068
:1014D000CFCF8FE08093B3002092640130926501FA
:1014E0004092660150926701809170008260809303
:1014F0007000C4CE8A2D0E949701C0CE89E392E08D
:101500000C9460031F93FC0199278827BC01E89481
:1015100011911032E9F3193010F01E30C8F31B326C
:1015200051F01D3249F4689406C00E94A90A610F67
:10153000711D811D911D119110531A30B0F33EF4AD
:1015400090958095709561957F4F8F4F9F4F1F911C
:101550000895592F482F372F262F660F771F881F82
:10156000991F660F771F881F991F620F731F841FB3
:10157000951F660F771F881F991F0895E89409C06B
:1015800097FB3EF490958095709561957F4F8F4FB6
:101590009F4F9923A9F0F92F96E9BB279395F695CC
:1015A000879577956795B795F111F8CFFAF4BB0F4A
:1015B00011F460FF1BC06F5F7F4F8F4F9F4F16C0AE
:1015C000882311F096E911C0772321F09EE8872F38
:1015D000762F05C0662371F096E8862F70E060E0F4
:1015E0002AF09A95660F771F881FDAF7880F96956D
:1015F000879597F908950E940E0B0C947F0B0E941B
:10160000710B38F00E94780B20F0952311F00C94A8
:10161000680B0C946E0B11240C94B30B0E94900B6E
:1016200070F3959FC1F3950F50E0551F629FF00135
:10163000729FBB27F00DB11D639FAA27F00DB11D4E
:10164000AA1F649F6627B00DA11D661F829F2227D7
:10165000B00DA11D621F739FB00DA11D621F839F5E
:10166000A00D611D221F749F3327A00D611D231F34
:10167000849F600D211D822F762F6A2F11249F5782
:1016800050409AF0F1F088234AF0EE0FFF1FBB1F85
:10169000661F771F881F91505040A9F79E3F510544
:1016A00080F00C94680B0C94B30B5F3FE4F3983E0E
:1016B000D4F3869577956795B795F795E7959F5FEE
:1016C000C1F7FE2B880F911D9695879597F9089580
:1016D00097F99F6780E870E060E008959FEF80ECE5
:1016E000089500240A941616170618060906089588
:1016F00000240A9412161306140605060895092EEE
:101700000394000C11F4882352F0BB0F40F4BF2B5C
:1017100011F460FF04C06F5F7F4F8F4F9F4F08959C
:1017200057FD9058440F551F59F05F3F71F0479592
:10173000880F97FB991F61F09F3F79F08795089577
:10174000121613061406551FF2CF4695F1DF08C096
:10175000161617061806991FF1CF869571056105B3
:1017600008940895E894BB2766277727CB0197F95B
:1017700008952F923F924F925F926F927F928F9235
:101780009F92AF92BF92CF92DF92EF92FF920F9310
:101790001F93CF93DF93CDB7DEB7CA1BDB0B0FB61A
:1017A000F894DEBF0FBECDBF09942A8839884888D7
:1017B0005F846E847D848C849B84AA84B984C8846D
:1017C000DF80EE80FD800C811B81AA81B981CE0F64
:1017D000D11D0FB6F894DEBF0FBECDBFED01089549
:1017E0005058BB27AA270E94080C0C947F0B0E941C
:1017F000710B38F00E94780B20F039F49F3F19F4F8
:1018000026F40C946E0B0EF4E095E7FB0C94680B39
:10181000E92F0E94900B58F3BA17620773078407E9
:10182000950720F079F4A6F50C94B20B0EF4E09530
:101830000B2EBA2FA02D0B01B90190010C01CA018A
:10184000A0011124FF27591B99F0593F50F4503E35
:1018500068F11A16F040A22F232F342F4427585F27
:10186000F3CF469537952795A795F0405395C9F73F
:101870007EF41F16BA0B620B730B840BBAF09150F7
:10188000A1F0FF0FBB1F661F771F881FC2F70EC096
:10189000BA0F621F731F841F48F487957795679569
:1018A000B795F7959E3F08F0B0CF9395880F08F055
:1018B0009927EE0F9795879508950E94640C689478
:1018C000B1110C94B30B08950E94980B88F09F57A8
:1018D00098F0B92F9927B751B0F0E1F0660F771F54
:1018E000881F991F1AF0BA95C9F714C0B13091F04A
:1018F0000E94B20BB1E008950C94B20B672F782FC1
:101900008827B85F39F0B93FCCF38695779567950E
:10191000B395D9F73EF490958095709561957F4F7A
:101920008F4F9F4F0895052E97FB1EF400940E9441
:10193000AA0C57FD07D00E94B80C07FC03D04EF448
:101940000C94AA0C50954095309521953F4F4F4FE0
:101950005F4F089590958095709561957F4F8F4F5B
:101960009F4F0895EE0FFF1F0590F491E02D09940D
:10197000A1E21A2EAA1BBB1BFD010DC0AA1FBB1F93
:10198000EE1FFF1FA217B307E407F50720F0A21B05
:10199000B30BE40BF50B661F771F881F991F1A9472
:1019A00069F760957095809590959B01AC01BD019C
:1019B000CF0108950F931F93CF93DF93823091054A
:1019C00010F482E090E0E0914102F091420230E0B8
:1019D00020E0B0E0A0E0309799F42115310509F43A
:1019E0004AC0281B390B24303105D8F58A819B81E8
:1019F0006115710589F1FB0193838283FE0111C09A
:101A0000408151810281138148175907E0F048173E
:101A1000590799F4109761F012960C931297139648
:101A20001C933296CF01DF91CF911F910F910895B2
:101A30000093410210934202F4CF2115310551F079
:101A40004217530738F0A901DB019A01BD01DF01FC
:101A5000F801C1CFEF01F9CF909342028093410288
:101A6000CDCFFE01E20FF31F8193919322503109F4
:101A700039832883D7CF20913F0230914002232B16
:101A800041F42091030130910401309340022093EE
:101A90003F0220910101309102012115310541F4ED
:101AA0002DB73EB74091050150910601241B350B1F
:101AB000E0913F02F0914002E217F307A0F42E1BE1
:101AC0003F0B2817390778F0AC014E5F5F4F2417A2
:101AD000350748F04E0F5F1F5093400240933F027E
:101AE000819391939FCFF0E0E0E09CCFCF93DF9381
:101AF0000097E9F0FC01329713821282A091410213
:101B0000B0914202ED0130E020E01097A1F4208175
:101B10003181820F931F20913F023091400228179C
:101B2000390709F061C0F0934002E0933F02DF9172
:101B3000CF910895EA01CE17DF07E8F54A815B816E
:101B40009E0141155105B1F7E901FB83EA834991F3
:101B50005991C40FD51FEC17FD0761F48081918165
:101B60000296840F951FE90199838883828193816E
:101B70009B838A83F0E0E0E012968D919C9113970D
:101B80000097B9F52D913C911197CD010296820FE6
:101B9000931F20913F02309140022817390739F6F0
:101BA000309751F51092420210924102B0934002D8
:101BB000A0933F02BCCFD383C28340815181840F65
:101BC000951FC817D90761F44E5F5F4F88819981CF
:101BD000480F591F518340838A819B81938382835D
:101BE0002115310509F0B0CFF0934202E093410294
:101BF0009ECFFD01DC01C0CF13821282D7CFB0E0AF
:101C0000A0E0E5E0FEE00C94BB0B8C01009751F4E2
:101C1000CB010E94DA0C8C01C801CDB7DEB7E0E140
:101C20000C94D70BFC01E60FF71F9C0122503109E1
:101C3000E217F30708F49DC0D901CD91DC9111970B
:101C4000C617D70798F0C530D10530F3CE010497F9
:101C50008617970708F3C61BD70B2297C193D1931A
:101C60006D937C93CF010E94760DD6CF5B01AC1AA9
:101C7000BD0A4C018C0E9D1EA0914102B091420202
:101C8000512C412CF12CE12C109731F580913F0221
:101C9000909140028815990509F05CC046165706D8
:101CA00008F058C08091010190910201009741F421
:101CB0008DB79EB74091050150910601841B950B8D
:101CC000E817F90708F055C0F0934002E0933F028F
:101CD000F90171836083A0CF8D919C911197129629
:101CE0006C90129713967C901397A815B90559F527
:101CF0006C0142E0C40ED11CCA14DB0420F1AC011B
:101D00004A195B09DA011296159780F06282738294
:101D100051834083D9016D937C93E114F10471F0F8
:101D2000D7011396FC93EE93129776CF22968C0FE1
:101D30009D1FF90191838083F301EFCFF09342025D
:101D4000E093410269CF4816590608F42C017D0141
:101D5000D3019ACFCB010E94DA0C7C01009749F0A5
:101D6000AE01B8010E94BC0EC8010E94760D870129
:101D700053CF10E000E050CFFB01DC0102C0019026
:101D80000D9241505040D8F70895FB01DC018D9130
:101D9000019080190110D9F3990B0895FB01DC0122
:101DA00001900D920020E1F70895AEE0B0E0EBED78
:101DB000FEE00C94C70B0D891E898F89988D26E053
:101DC0002C831A83098397FF02C080E090E8019773
:101DD0009E838D83AE01455E5F4F698D7A8DCE0106
:101DE00001960E94050F4D815E8157FD0AC02F812B
:101DF0003885421753070CF49A01020F131FF8019C
:101E000010822E96E4E00C94E30BABE0B0E0EBE044
:101E1000FFE00C94B90B7C013B018A01FC011782A5
:101E20001682838181FFC8C1CE0101965C01F70152
:101E30009381F30193FD859193FF81913F01882365
:101E400009F453C1853239F493FD859193FF819153
:101E50003F01853229F4B70190E00E94F510E7CFE9
:101E6000912C212C312CFFE1F31538F08B3211F13C
:101E700090F4803209F1833229F137FC3CC020ED27
:101E8000280F2A3050F536FE20C08AE0989E200D9B
:101E90001124922E06C08D3291F0803371F7689430
:101EA00030F8F30193FD859193FF81913F018111FA
:101EB000DACF21C0689431F8689432F8F2CF689490
:101EC00033F8EFCF689434F8ECCFEAE02E9E200D83
:101ED0001124222E689435F8E4CF8E3229F436FC92
:101EE00004C1689436F8DDCF8C3619F4689437F85D
:101EF000D8CF8836B1F2982F9F7D95549330E0F07B
:101F00008336A1F18337C1F1833509F063C028011D
:101F1000F2E04F0E511CF801C080D180692D70E0B5
:101F200036FC02C06FEF7FEFC6010E94DF104C014C
:101F3000689437F882010AC00C5F1F4FFFE3F983F2
:101F400088248394912C6501E89437F833FE2DC0E2
:101F5000522C8114910471F5552009F468CFB70112
:101F600080E290E00E94F5105A94F6CFF80180814B
:101F700089830E5F1F4FE4CF2801F2E04F0E511C02
:101F8000F801C080D180692D70E036FC02C06FEF8F
:101F90007FEFC6010E94EA104C018201D5CFB70144
:101FA00080E290E00E94F5102A942814190409F0A8
:101FB000B0F7CECFF60137FC859137FE81916F01E6
:101FC000B70190E00E94F51051105A94F1E08F1A79
:101FD0009108BFCF843619F0893609F077C0F8012F
:101FE00037FE6BC060817181828193810C5F1F4FCE
:101FF000F32DFF763F2E97FF09C090958095709541
:1020000061957F4F8F4F9F4F689437F82AE030E0FB
:10201000A5010E942511C82ECA188C2C432C36FE0F
:102020000CC0E89440F8C91440F434FE05C032FCFA
:1020300003C0F32DFE7E4F2E892C44FE95C0FE0179
:10204000EC0DF11D8081803309F087C0242D297E9D
:10205000422E842D8870582E43FC95C040FE8FC0C0
:102060009C2C821418F42C0C922C981844FE91C0CD
:10207000B70180E390E00E94F51042FE09C088E7B6
:1020800090E041FE02C088E590E0B7010E94F510A3
:10209000C91408F48AC0CA94D12C9FEFC91AD90A6E
:1020A000CA0CDB1CF60182916F01B70190E00E941F
:1020B000F510AC14BD04B1F74FCF60817181072ECC
:1020C000000C880B990B0E5F1F4F92CFD32CE89416
:1020D000D4F82AE030E0853739F1232D297FD22E3C
:1020E0008F3601F148F48835A9F0F7018681978190
:1020F0002B96E2E10C94D50B803749F08837A9F78D
:10210000D4FE02C06894D2F820E130E00DC068949B
:10211000D4F8F6CF34FE03C0822F8660D82E20E19B
:1021200032E002C028E030E0F801D7FE0FC0608145
:102130007181828193810C5F1F4FA5010E9425113F
:10214000C82ECA183D2CE89437F867CF608171819A
:1021500090E080E00E5F1F4FF0CF42FC02C08394FE
:1021600078CF8394839475CF842D867809F471CFCA
:10217000F6CFB70180E290E00E94F51083948214BC
:10218000C0F3512C73CF522C5818821408F46ECF20
:10219000F8CF842D867809F47BCF8BE241FE80E274
:1021A00047FC8DE2B70190E071CFB70180E390E08A
:1021B0000E94F5109A946CCF8FEF9FEF99CFFC019E
:1021C0000590615070400110D8F7809590958E0F62
:1021D0009F1F0895FC016150704001900110D8F7D5
:1021E000809590958E0F9F1F08950F931F93CF9307
:1021F000DF93182F092FEB018B8181FD09C01FEFA1
:102200000FEF812F902FDF91CF911F910F910895A4
:1022100082FF14C02E813F818C819D812817390750
:102220003CF4E881F981CF0101969983888310837A
:102230008E819F8101969F838E83E3CFE885F98508
:10224000812F0995892BA1F3DACFFA01AA2728302B
:1022500051F1203181F1E8946F936E7F6E5F7F4F73
:102260008F4F9F4FAF4FB1E03ED0B4E03CD0670FEF
:10227000781F891F9A1FA11D680F791F8A1F911D42
:10228000A11D6A0F711D811D911DA11D20D009F492
:1022900068943F912AE0269F11243019305D3193D4
:1022A000DEF6CF010895462F4770405D4193B3E0BD
:1022B0000FD0C9F7F6CF462F4F70405D4A3318F064
:1022C000495D31FD4052419302D0A9F7EACFB4E015
:1022D000A6959795879577956795BA95C9F70097CD
:1022E0006105710508959B01AC010A2E069457956E
:1022F000479537952795BA95C9F7620F731F841FC5
:10230000951FA01D089510E0C8E6D0E004C0FE01AE
:102310000E94B20C2196C936D107C9F7F894FFCFB5
:10232000FF0000430280005630332F3500000000CC
:10233000005902C301F001C1022102FF011302236F
:1023400000234350002352455155492E0023535436
:102350004F505F2E002350415553412E0023504CC7
:1023600041595F2E00234F4B2E0023442530356CFE
:04237000642E0000D7
:00000001FF
